{
  "_format": "hh-sol-artifact-1",
  "contractName": "GreedyPig",
  "sourceName": "contracts/GreedyPig.sol",
  "abi": [
    {
      "inputs": [
        {
          "internalType": "bytes32",
          "name": "_keyhash",
          "type": "bytes32"
        },
        {
          "internalType": "uint256",
          "name": "subscriptionId",
          "type": "uint256"
        },
        {
          "internalType": "address",
          "name": "_VRFConsumerBaseV2Plus",
          "type": "address"
        }
      ],
      "stateMutability": "nonpayable",
      "type": "constructor"
    },
    {
      "inputs": [
        {
          "internalType": "address",
          "name": "have",
          "type": "address"
        },
        {
          "internalType": "address",
          "name": "want",
          "type": "address"
        }
      ],
      "name": "OnlyCoordinatorCanFulfill",
      "type": "error"
    },
    {
      "inputs": [
        {
          "internalType": "address",
          "name": "have",
          "type": "address"
        },
        {
          "internalType": "address",
          "name": "owner",
          "type": "address"
        },
        {
          "internalType": "address",
          "name": "coordinator",
          "type": "address"
        }
      ],
      "name": "OnlyOwnerOrCoordinator",
      "type": "error"
    },
    {
      "inputs": [],
      "name": "ZeroAddress",
      "type": "error"
    },
    {
      "anonymous": false,
      "inputs": [
        {
          "indexed": false,
          "internalType": "address",
          "name": "vrfCoordinator",
          "type": "address"
        }
      ],
      "name": "CoordinatorSet",
      "type": "event"
    },
    {
      "anonymous": false,
      "inputs": [
        {
          "indexed": true,
          "internalType": "uint256",
          "name": "gameId",
          "type": "uint256"
        },
        {
          "indexed": true,
          "internalType": "address",
          "name": "creator",
          "type": "address"
        }
      ],
      "name": "GameCreated",
      "type": "event"
    },
    {
      "anonymous": false,
      "inputs": [
        {
          "indexed": true,
          "internalType": "uint256",
          "name": "gameId",
          "type": "uint256"
        },
        {
          "indexed": true,
          "internalType": "address",
          "name": "winner",
          "type": "address"
        }
      ],
      "name": "GameEnded",
      "type": "event"
    },
    {
      "anonymous": false,
      "inputs": [
        {
          "indexed": true,
          "internalType": "address",
          "name": "from",
          "type": "address"
        },
        {
          "indexed": true,
          "internalType": "address",
          "name": "to",
          "type": "address"
        }
      ],
      "name": "OwnershipTransferRequested",
      "type": "event"
    },
    {
      "anonymous": false,
      "inputs": [
        {
          "indexed": true,
          "internalType": "address",
          "name": "from",
          "type": "address"
        },
        {
          "indexed": true,
          "internalType": "address",
          "name": "to",
          "type": "address"
        }
      ],
      "name": "OwnershipTransferred",
      "type": "event"
    },
    {
      "anonymous": false,
      "inputs": [
        {
          "indexed": true,
          "internalType": "uint256",
          "name": "gameId",
          "type": "uint256"
        },
        {
          "indexed": true,
          "internalType": "address",
          "name": "player",
          "type": "address"
        }
      ],
      "name": "PlayerJoined",
      "type": "event"
    },
    {
      "anonymous": false,
      "inputs": [
        {
          "indexed": true,
          "internalType": "uint256",
          "name": "gameId",
          "type": "uint256"
        },
        {
          "indexed": true,
          "internalType": "address",
          "name": "player",
          "type": "address"
        },
        {
          "indexed": false,
          "internalType": "uint256",
          "name": "roll",
          "type": "uint256"
        }
      ],
      "name": "PlayerRoll",
      "type": "event"
    },
    {
      "anonymous": false,
      "inputs": [
        {
          "indexed": false,
          "internalType": "uint256",
          "name": "requestId",
          "type": "uint256"
        },
        {
          "indexed": false,
          "internalType": "uint256[]",
          "name": "randomWords",
          "type": "uint256[]"
        }
      ],
      "name": "RequestFulfilled",
      "type": "event"
    },
    {
      "anonymous": false,
      "inputs": [
        {
          "indexed": false,
          "internalType": "uint256",
          "name": "requestId",
          "type": "uint256"
        },
        {
          "indexed": false,
          "internalType": "uint32",
          "name": "numWords",
          "type": "uint32"
        }
      ],
      "name": "RequestSent",
      "type": "event"
    },
    {
      "inputs": [],
      "name": "acceptOwnership",
      "outputs": [],
      "stateMutability": "nonpayable",
      "type": "function"
    },
    {
      "inputs": [],
      "name": "callbackGasLimit",
      "outputs": [
        {
          "internalType": "uint32",
          "name": "",
          "type": "uint32"
        }
      ],
      "stateMutability": "view",
      "type": "function"
    },
    {
      "inputs": [
        {
          "internalType": "string",
          "name": "_name",
          "type": "string"
        },
        {
          "internalType": "uint256",
          "name": "_targetScore",
          "type": "uint256"
        },
        {
          "internalType": "uint256",
          "name": "_stakemount",
          "type": "uint256"
        }
      ],
      "name": "createGame",
      "outputs": [],
      "stateMutability": "nonpayable",
      "type": "function"
    },
    {
      "inputs": [],
      "name": "gameId",
      "outputs": [
        {
          "internalType": "uint256",
          "name": "",
          "type": "uint256"
        }
      ],
      "stateMutability": "view",
      "type": "function"
    },
    {
      "inputs": [],
      "name": "getBalance",
      "outputs": [
        {
          "internalType": "uint256",
          "name": "",
          "type": "uint256"
        }
      ],
      "stateMutability": "view",
      "type": "function"
    },
    {
      "inputs": [
        {
          "internalType": "uint256",
          "name": "_gameId",
          "type": "uint256"
        }
      ],
      "name": "getGame",
      "outputs": [
        {
          "internalType": "uint256",
          "name": "id",
          "type": "uint256"
        },
        {
          "internalType": "string",
          "name": "name",
          "type": "string"
        },
        {
          "internalType": "address",
          "name": "creator",
          "type": "address"
        },
        {
          "internalType": "uint256",
          "name": "targetScore",
          "type": "uint256"
        },
        {
          "internalType": "uint256",
          "name": "stakemount",
          "type": "uint256"
        },
        {
          "internalType": "uint256",
          "name": "rollOutcome",
          "type": "uint256"
        },
        {
          "internalType": "bool",
          "name": "bet",
          "type": "bool"
        },
        {
          "internalType": "enum GreedyPig.GameStatus",
          "name": "status",
          "type": "uint8"
        },
        {
          "internalType": "uint256",
          "name": "currentPlayerIndex",
          "type": "uint256"
        },
        {
          "internalType": "address",
          "name": "winner",
          "type": "address"
        }
      ],
      "stateMutability": "view",
      "type": "function"
    },
    {
      "inputs": [],
      "name": "getGameId",
      "outputs": [
        {
          "internalType": "uint256",
          "name": "",
          "type": "uint256"
        }
      ],
      "stateMutability": "view",
      "type": "function"
    },
    {
      "inputs": [
        {
          "internalType": "uint256",
          "name": "_requestId",
          "type": "uint256"
        }
      ],
      "name": "getRequestStatus",
      "outputs": [
        {
          "internalType": "bool",
          "name": "fulfilled",
          "type": "bool"
        },
        {
          "internalType": "uint256[]",
          "name": "randomWords",
          "type": "uint256[]"
        }
      ],
      "stateMutability": "view",
      "type": "function"
    },
    {
      "inputs": [
        {
          "internalType": "uint256",
          "name": "_gameId",
          "type": "uint256"
        }
      ],
      "name": "joinGame",
      "outputs": [],
      "stateMutability": "payable",
      "type": "function"
    },
    {
      "inputs": [],
      "name": "keyHash",
      "outputs": [
        {
          "internalType": "bytes32",
          "name": "",
          "type": "bytes32"
        }
      ],
      "stateMutability": "view",
      "type": "function"
    },
    {
      "inputs": [],
      "name": "lastRequestId",
      "outputs": [
        {
          "internalType": "uint256",
          "name": "",
          "type": "uint256"
        }
      ],
      "stateMutability": "view",
      "type": "function"
    },
    {
      "inputs": [],
      "name": "numWords",
      "outputs": [
        {
          "internalType": "uint32",
          "name": "",
          "type": "uint32"
        }
      ],
      "stateMutability": "view",
      "type": "function"
    },
    {
      "inputs": [],
      "name": "owner",
      "outputs": [
        {
          "internalType": "address",
          "name": "",
          "type": "address"
        }
      ],
      "stateMutability": "view",
      "type": "function"
    },
    {
      "inputs": [
        {
          "internalType": "uint256",
          "name": "_gameId",
          "type": "uint256"
        }
      ],
      "name": "passTurn",
      "outputs": [],
      "stateMutability": "nonpayable",
      "type": "function"
    },
    {
      "inputs": [
        {
          "internalType": "uint256",
          "name": "requestId",
          "type": "uint256"
        },
        {
          "internalType": "uint256[]",
          "name": "randomWords",
          "type": "uint256[]"
        }
      ],
      "name": "rawFulfillRandomWords",
      "outputs": [],
      "stateMutability": "nonpayable",
      "type": "function"
    },
    {
      "inputs": [],
      "name": "requestConfirmations",
      "outputs": [
        {
          "internalType": "uint16",
          "name": "",
          "type": "uint16"
        }
      ],
      "stateMutability": "view",
      "type": "function"
    },
    {
      "inputs": [
        {
          "internalType": "uint256",
          "name": "",
          "type": "uint256"
        }
      ],
      "name": "requestIds",
      "outputs": [
        {
          "internalType": "uint256",
          "name": "",
          "type": "uint256"
        }
      ],
      "stateMutability": "view",
      "type": "function"
    },
    {
      "inputs": [
        {
          "internalType": "bool",
          "name": "enableNativePayment",
          "type": "bool"
        }
      ],
      "name": "requestRandomWords",
      "outputs": [
        {
          "internalType": "uint256",
          "name": "requestId",
          "type": "uint256"
        }
      ],
      "stateMutability": "nonpayable",
      "type": "function"
    },
    {
      "inputs": [
        {
          "internalType": "uint256",
          "name": "_gameId",
          "type": "uint256"
        }
      ],
      "name": "rollDice",
      "outputs": [],
      "stateMutability": "nonpayable",
      "type": "function"
    },
    {
      "inputs": [
        {
          "internalType": "uint256",
          "name": "",
          "type": "uint256"
        }
      ],
      "name": "s_requests",
      "outputs": [
        {
          "internalType": "bool",
          "name": "fulfilled",
          "type": "bool"
        },
        {
          "internalType": "bool",
          "name": "exists",
          "type": "bool"
        }
      ],
      "stateMutability": "view",
      "type": "function"
    },
    {
      "inputs": [],
      "name": "s_subscriptionId",
      "outputs": [
        {
          "internalType": "uint256",
          "name": "",
          "type": "uint256"
        }
      ],
      "stateMutability": "view",
      "type": "function"
    },
    {
      "inputs": [],
      "name": "s_vrfCoordinator",
      "outputs": [
        {
          "internalType": "contract IVRFCoordinatorV2Plus",
          "name": "",
          "type": "address"
        }
      ],
      "stateMutability": "view",
      "type": "function"
    },
    {
      "inputs": [
        {
          "internalType": "address",
          "name": "_vrfCoordinator",
          "type": "address"
        }
      ],
      "name": "setCoordinator",
      "outputs": [],
      "stateMutability": "nonpayable",
      "type": "function"
    },
    {
      "inputs": [
        {
          "internalType": "address",
          "name": "to",
          "type": "address"
        }
      ],
      "name": "transferOwnership",
      "outputs": [],
      "stateMutability": "nonpayable",
      "type": "function"
    },
    {
      "stateMutability": "payable",
      "type": "receive"
    }
  ],
  "bytecode": "0x6080604052620186a0600c60006101000a81548163ffffffff021916908363ffffffff1602179055506003600c60046101000a81548161ffff021916908361ffff1602179055506001600c60066101000a81548163ffffffff021916908363ffffffff1602179055503480156200007557600080fd5b50604051620039543803806200395483398181016040528101906200009b91906200046a565b80338060008073ffffffffffffffffffffffffffffffffffffffff168273ffffffffffffffffffffffffffffffffffffffff160362000111576040517f08c379a0000000000000000000000000000000000000000000000000000000008152600401620001089062000527565b60405180910390fd5b816000806101000a81548173ffffffffffffffffffffffffffffffffffffffff021916908373ffffffffffffffffffffffffffffffffffffffff160217905550600073ffffffffffffffffffffffffffffffffffffffff168173ffffffffffffffffffffffffffffffffffffffff1614620001985762000197816200025b60201b60201c565b5b505050600073ffffffffffffffffffffffffffffffffffffffff168173ffffffffffffffffffffffffffffffffffffffff160362000202576040517fd92e233d00000000000000000000000000000000000000000000000000000000815260040160405180910390fd5b80600260006101000a81548173ffffffffffffffffffffffffffffffffffffffff021916908373ffffffffffffffffffffffffffffffffffffffff1602179055505082600b8190555081600881905550505050620005bb565b3373ffffffffffffffffffffffffffffffffffffffff168173ffffffffffffffffffffffffffffffffffffffff1603620002cc576040517f08c379a0000000000000000000000000000000000000000000000000000000008152600401620002c39062000599565b60405180910390fd5b80600160006101000a81548173ffffffffffffffffffffffffffffffffffffffff021916908373ffffffffffffffffffffffffffffffffffffffff1602179055508073ffffffffffffffffffffffffffffffffffffffff1660008054906101000a900473ffffffffffffffffffffffffffffffffffffffff1673ffffffffffffffffffffffffffffffffffffffff167fed8889f560326eb138920d842192f0eb3dd22b4f139c87a2c57538e05bae127860405160405180910390a350565b600080fd5b6000819050919050565b620003a4816200038f565b8114620003b057600080fd5b50565b600081519050620003c48162000399565b92915050565b6000819050919050565b620003df81620003ca565b8114620003eb57600080fd5b50565b600081519050620003ff81620003d4565b92915050565b600073ffffffffffffffffffffffffffffffffffffffff82169050919050565b6000620004328262000405565b9050919050565b620004448162000425565b81146200045057600080fd5b50565b600081519050620004648162000439565b92915050565b6000806000606084860312156200048657620004856200038a565b5b60006200049686828701620003b3565b9350506020620004a986828701620003ee565b9250506040620004bc8682870162000453565b9150509250925092565b600082825260208201905092915050565b7f43616e6e6f7420736574206f776e657220746f207a65726f0000000000000000600082015250565b60006200050f601883620004c6565b91506200051c82620004d7565b602082019050919050565b60006020820190508181036000830152620005428162000500565b9050919050565b7f43616e6e6f74207472616e7366657220746f2073656c66000000000000000000600082015250565b600062000581601783620004c6565b91506200058e8262000549565b602082019050919050565b60006020820190508181036000830152620005b48162000572565b9050919050565b61338980620005cb6000396000f3fe60806040526004361061014f5760003560e01c80638ea98117116100b6578063c0bd83511161006f578063c0bd835114610495578063d7c81b55146104c0578063d8a4676f146104eb578063efaa55a014610529578063f2fde38b14610545578063fc2a88c31461056e57610156565b80638ea98117146103695780639eccacf614610392578063a168fa89146103bd578063a2f77bcc146103fb578063acfff37714610441578063b0fb162f1461046a57610156565b80637392a771116101085780637392a7711461025757806379ba5097146102945780637ccfd7fc146102ab5780638796ba8c146102d65780638ac00021146103135780638da5cb5b1461033e57610156565b80630b6d715b1461015b57806312065fe0146101845780631a5375e1146101af5780631fe543e3146101d857806324f746971461020157806361728f391461022c57610156565b3661015657005b600080fd5b34801561016757600080fd5b50610182600480360381019061017d9190612024565b610599565b005b34801561019057600080fd5b506101996106f0565b6040516101a691906120a2565b60405180910390f35b3480156101bb57600080fd5b506101d660048036038101906101d191906120bd565b6106f8565b005b3480156101e457600080fd5b506101ff60048036038101906101fa919061214a565b610781565b005b34801561020d57600080fd5b50610216610847565b60405161022391906121c9565b60405180910390f35b34801561023857600080fd5b5061024161085d565b60405161024e91906121fd565b60405180910390f35b34801561026357600080fd5b5061027e60048036038101906102799190612250565b610863565b60405161028b91906120a2565b60405180910390f35b3480156102a057600080fd5b506102a9610af6565b005b3480156102b757600080fd5b506102c0610c8b565b6040516102cd91906121c9565b60405180910390f35b3480156102e257600080fd5b506102fd60048036038101906102f891906120bd565b610ca1565b60405161030a91906120a2565b60405180910390f35b34801561031f57600080fd5b50610328610cc5565b60405161033591906120a2565b60405180910390f35b34801561034a57600080fd5b50610353610ccb565b60405161036091906122be565b60405180910390f35b34801561037557600080fd5b50610390600480360381019061038b9190612305565b610cf4565b005b34801561039e57600080fd5b506103a7610ed5565b6040516103b49190612391565b60405180910390f35b3480156103c957600080fd5b506103e460048036038101906103df91906120bd565b610efb565b6040516103f29291906123bb565b60405180910390f35b34801561040757600080fd5b50610422600480360381019061041d91906120bd565b610f39565b6040516104389a999897969594939291906124da565b60405180910390f35b34801561044d57600080fd5b50610468600480360381019061046391906120bd565b611099565b005b34801561047657600080fd5b5061047f6113d1565b60405161048c919061259a565b60405180910390f35b3480156104a157600080fd5b506104aa6113e5565b6040516104b791906120a2565b60405180910390f35b3480156104cc57600080fd5b506104d56113ef565b6040516104e291906120a2565b60405180910390f35b3480156104f757600080fd5b50610512600480360381019061050d91906120bd565b6113f5565b604051610520929190612673565b60405180910390f35b610543600480360381019061053e91906120bd565b611520565b005b34801561055157600080fd5b5061056c60048036038101906105679190612305565b6117d9565b005b34801561057a57600080fd5b506105836117ed565b60405161059091906120a2565b60405180910390f35b600360008154809291906105ac906126d2565b9190505550600060046000600354815260200190815260200160002090506003548160000181905550838160010190816105e6919061291c565b50338160020160006101000a81548173ffffffffffffffffffffffffffffffffffffffff021916908373ffffffffffffffffffffffffffffffffffffffff160217905550828160030181905550818160040181905550600560003373ffffffffffffffffffffffffffffffffffffffff1673ffffffffffffffffffffffffffffffffffffffff16815260200190815260200160002060035490806001815401808255809150506001900390600052602060002001600090919091909150553373ffffffffffffffffffffffffffffffffffffffff166003547fc3e0f84839dc888c892a013d10c8f9d6dc05a21a879d0ce468ca558013e9121c60405160405180910390a350505050565b600047905090565b600060046000838152602001908152602001600020905060008160070160003373ffffffffffffffffffffffffffffffffffffffff1673ffffffffffffffffffffffffffffffffffffffff1681526020019081526020016000209050806000015481600101600082825461076c91906129ee565b9250508190555061077c836117f3565b505050565b600260009054906101000a900473ffffffffffffffffffffffffffffffffffffffff1673ffffffffffffffffffffffffffffffffffffffff163373ffffffffffffffffffffffffffffffffffffffff16146108375733600260009054906101000a900473ffffffffffffffffffffffffffffffffffffffff166040517f1cf993f400000000000000000000000000000000000000000000000000000000815260040161082e929190612a22565b60405180910390fd5b6108428383836118fb565b505050565b600c60009054906101000a900463ffffffff1681565b600b5481565b600061086d611a3d565b600260009054906101000a900473ffffffffffffffffffffffffffffffffffffffff1673ffffffffffffffffffffffffffffffffffffffff16639b1c385e6040518060c00160405280600b5481526020016008548152602001600c60049054906101000a900461ffff1661ffff168152602001600c60009054906101000a900463ffffffff1663ffffffff168152602001600c60069054906101000a900463ffffffff1663ffffffff1681526020016109356040518060200160405280881515815250611acd565b8152506040518263ffffffff1660e01b81526004016109549190612b56565b6020604051808303816000875af1158015610973573d6000803e3d6000fd5b505050506040513d601f19601f820116820180604052508101906109979190612b8d565b90506040518060600160405280600015158152602001600115158152602001600067ffffffffffffffff8111156109d1576109d0611ec3565b5b6040519080825280602002602001820160405280156109ff5781602001602082028036833780820191505090505b508152506007600083815260200190815260200160002060008201518160000160006101000a81548160ff02191690831515021790555060208201518160000160016101000a81548160ff0219169083151502179055506040820151816001019080519060200190610a72929190611e2a565b50905050600981908060018154018082558091505060019003906000526020600020016000909190919091505580600a819055507fcc58b13ad3eab50626c6a6300b1d139cd6ebb1688a7cced9461c2f7e762665ee81600c60069054906101000a900463ffffffff16604051610ae9929190612bba565b60405180910390a1919050565b600160009054906101000a900473ffffffffffffffffffffffffffffffffffffffff1673ffffffffffffffffffffffffffffffffffffffff163373ffffffffffffffffffffffffffffffffffffffff1614610b86576040517f08c379a0000000000000000000000000000000000000000000000000000000008152600401610b7d90612c2f565b60405180910390fd5b60008060009054906101000a900473ffffffffffffffffffffffffffffffffffffffff169050336000806101000a81548173ffffffffffffffffffffffffffffffffffffffff021916908373ffffffffffffffffffffffffffffffffffffffff1602179055506000600160006101000a81548173ffffffffffffffffffffffffffffffffffffffff021916908373ffffffffffffffffffffffffffffffffffffffff1602179055503373ffffffffffffffffffffffffffffffffffffffff168173ffffffffffffffffffffffffffffffffffffffff167f8be0079c531659141344cd1fd0a4f28419497f9722a3daafe3b4186f6b6457e060405160405180910390a350565b600c60069054906101000a900463ffffffff1681565b60098181548110610cb157600080fd5b906000526020600020016000915090505481565b60085481565b60008060009054906101000a900473ffffffffffffffffffffffffffffffffffffffff16905090565b610cfc610ccb565b73ffffffffffffffffffffffffffffffffffffffff163373ffffffffffffffffffffffffffffffffffffffff1614158015610d855750600260009054906101000a900473ffffffffffffffffffffffffffffffffffffffff1673ffffffffffffffffffffffffffffffffffffffff163373ffffffffffffffffffffffffffffffffffffffff1614155b15610df45733610d93610ccb565b600260009054906101000a900473ffffffffffffffffffffffffffffffffffffffff166040517f061db9c1000000000000000000000000000000000000000000000000000000008152600401610deb93929190612c4f565b60405180910390fd5b600073ffffffffffffffffffffffffffffffffffffffff168173ffffffffffffffffffffffffffffffffffffffff1603610e5a576040517fd92e233d00000000000000000000000000000000000000000000000000000000815260040160405180910390fd5b80600260006101000a81548173ffffffffffffffffffffffffffffffffffffffff021916908373ffffffffffffffffffffffffffffffffffffffff1602179055507fd1a6a14209a385a964d036e404cb5cfb71f4000cdb03c9366292430787261be681604051610eca91906122be565b60405180910390a150565b600260009054906101000a900473ffffffffffffffffffffffffffffffffffffffff1681565b60076020528060005260406000206000915090508060000160009054906101000a900460ff16908060000160019054906101000a900460ff16905082565b600060606000806000806000806000806000600460008d815260200190815260200160002090508060000154816001018260020160009054906101000a900473ffffffffffffffffffffffffffffffffffffffff168360030154846004015485600501548660060160009054906101000a900460ff168760090160009054906101000a900460ff1688600a015489600b0160009054906101000a900473ffffffffffffffffffffffffffffffffffffffff16888054610ff790612749565b80601f016020809104026020016040519081016040528092919081815260200182805461102390612749565b80156110705780601f1061104557610100808354040283529160200191611070565b820191906000526020600020905b81548152906001019060200180831161105357829003601f168201915b505050505098509a509a509a509a509a509a509a509a509a509a50509193959799509193959799565b6003548111156110de576040517f08c379a00000000000000000000000000000000000000000000000000000000081526004016110d590612cd2565b60405180910390fd5b6000600460008381526020019081526020016000209050600281600801805490501015611140576040517f08c379a000000000000000000000000000000000000000000000000000000000815260040161113790612d64565b60405180910390fd5b61114981611b65565b15611189576040517f08c379a000000000000000000000000000000000000000000000000000000000815260040161118090612dd0565b60405180910390fd5b6000600281111561119d5761119c612463565b5b8160090160009054906101000a900460ff1660028111156111c1576111c0612463565b5b036111f45760018160090160006101000a81548160ff021916908360028111156111ee576111ed612463565b5b02179055505b60006111fe611ba6565b90508082600501819055503373ffffffffffffffffffffffffffffffffffffffff16837f84c283c54b9dd7c119a547366366504244b6d5c87460f44ffe83463b000af1e78360405161125091906120a2565b60405180910390a360008260070160003373ffffffffffffffffffffffffffffffffffffffff1673ffffffffffffffffffffffffffffffffffffffff1681526020019081526020016000209050600182036112bd57600081600001819055506112b8846117f3565b6113cb565b818160000160008282546112d191906129ee565b925050819055508260030154816001015482600001546112f191906129ee565b106113ca5760028360090160006101000a81548160ff0219169083600281111561131e5761131d612463565b5b0217905550806000015481600101600082825461133b91906129ee565b925050819055503383600b0160006101000a81548173ffffffffffffffffffffffffffffffffffffffff021916908373ffffffffffffffffffffffffffffffffffffffff1602179055503373ffffffffffffffffffffffffffffffffffffffff16847f3d5fcd8fa3235aeb3897f25c8ea49989174981afcb01b9d03189d1056a16775b60405160405180910390a35b5b50505050565b600c60049054906101000a900461ffff1681565b6000600354905090565b60035481565b600060606007600084815260200190815260200160002060000160019054906101000a900460ff1661145c576040517f08c379a000000000000000000000000000000000000000000000000000000000815260040161145390612e3c565b60405180910390fd5b6000600760008581526020019081526020016000206040518060600160405290816000820160009054906101000a900460ff161515151581526020016000820160019054906101000a900460ff161515151581526020016001820180548060200260200160405190810160405280929190818152602001828054801561150157602002820191906000526020600020905b8154815260200190600101908083116114ed575b5050505050815250509050806000015181604001519250925050915091565b600354811115611565576040517f08c379a000000000000000000000000000000000000000000000000000000000815260040161155c90612cd2565b60405180910390fd5b60006004600083815260200190815260200160002090506115868233611c3c565b156115c6576040517f08c379a00000000000000000000000000000000000000000000000000000000081526004016115bd90612ece565b60405180910390fd5b600060028111156115da576115d9612463565b5b8160090160009054906101000a900460ff1660028111156115fe576115fd612463565b5b1461163e576040517f08c379a000000000000000000000000000000000000000000000000000000000815260040161163590612f3a565b60405180910390fd5b80600401543414611684576040517f08c379a000000000000000000000000000000000000000000000000000000000815260040161167b90612fa6565b60405180910390fd5b80600801339080600181540180825580915050600190039060005260206000200160009091909190916101000a81548173ffffffffffffffffffffffffffffffffffffffff021916908373ffffffffffffffffffffffffffffffffffffffff1602179055508060070160003373ffffffffffffffffffffffffffffffffffffffff1673ffffffffffffffffffffffffffffffffffffffff16815260200190815260200160002050600660003373ffffffffffffffffffffffffffffffffffffffff1673ffffffffffffffffffffffffffffffffffffffff1681526020019081526020016000208290806001815401808255809150506001900390600052602060002001600090919091909150553373ffffffffffffffffffffffffffffffffffffffff16827f87969bc7faf902221a147b95ceba76e011c5efb0339a0a8ee7a2bb82d9cfbbd660405160405180910390a35050565b6117e1611a3d565b6117ea81611cfe565b50565b600a5481565b60006004600083815260200190815260200160002090506001600281111561181e5761181d612463565b5b8160090160009054906101000a900460ff16600281111561184257611841612463565b5b14611882576040517f08c379a000000000000000000000000000000000000000000000000000000000815260040161187990613012565b60405180910390fd5b60008160080180549050116118cc576040517f08c379a00000000000000000000000000000000000000000000000000000000081526004016118c39061307e565b60405180910390fd5b8060080180549050600182600a01546118e591906129ee565b6118ef91906130cd565b81600a01819055505050565b6007600084815260200190815260200160002060000160019054906101000a900460ff1661195e576040517f08c379a000000000000000000000000000000000000000000000000000000000815260040161195590612e3c565b60405180910390fd5b60016007600085815260200190815260200160002060000160006101000a81548160ff021916908315150217905550600060016006848460008181106119a7576119a66130fe565b5b905060200201356119b891906130cd565b6119c291906129ee565b905080600760008681526020019081526020016000206001016000815481106119ee576119ed6130fe565b5b90600052602060002001819055507ffe2e2d779dba245964d4e3ef9b994be63856fd568bf7d3ca9e224755cb1bd54d848484604051611a2f93929190613197565b60405180910390a150505050565b60008054906101000a900473ffffffffffffffffffffffffffffffffffffffff1673ffffffffffffffffffffffffffffffffffffffff163373ffffffffffffffffffffffffffffffffffffffff1614611acb576040517f08c379a0000000000000000000000000000000000000000000000000000000008152600401611ac290613215565b60405180910390fd5b565b60607f92fd13387c7fe7befbc38d303d6468778fb9731bc4583f17d92989c6fcfdeaaa82604051602401611b019190613260565b604051602081830303815290604052907bffffffffffffffffffffffffffffffffffffffffffffffffffffffff19166020820180517bffffffffffffffffffffffffffffffffffffffffffffffffffffffff83818316178352505050509050919050565b6000600280811115611b7a57611b79612463565b5b8260090160009054906101000a900460ff166002811115611b9e57611b9d612463565b5b149050919050565b600080611bb36000610863565b9050600080611bc1836113f5565b915091506000815111611c09576040517f08c379a0000000000000000000000000000000000000000000000000000000008152600401611c00906132c7565b60405180910390fd5b8115611c355780600081518110611c2357611c226130fe565b5b60200260200101519350505050611c39565b5050505b90565b60008060046000858152602001908152602001600020905060005b8160080180549050811015611cf1578373ffffffffffffffffffffffffffffffffffffffff16826008018281548110611c9357611c926130fe565b5b9060005260206000200160009054906101000a900473ffffffffffffffffffffffffffffffffffffffff1673ffffffffffffffffffffffffffffffffffffffff1603611ce457600192505050611cf8565b8080600101915050611c57565b5060009150505b92915050565b3373ffffffffffffffffffffffffffffffffffffffff168173ffffffffffffffffffffffffffffffffffffffff1603611d6c576040517f08c379a0000000000000000000000000000000000000000000000000000000008152600401611d6390613333565b60405180910390fd5b80600160006101000a81548173ffffffffffffffffffffffffffffffffffffffff021916908373ffffffffffffffffffffffffffffffffffffffff1602179055508073ffffffffffffffffffffffffffffffffffffffff1660008054906101000a900473ffffffffffffffffffffffffffffffffffffffff1673ffffffffffffffffffffffffffffffffffffffff167fed8889f560326eb138920d842192f0eb3dd22b4f139c87a2c57538e05bae127860405160405180910390a350565b828054828255906000526020600020908101928215611e66579160200282015b82811115611e65578251825591602001919060010190611e4a565b5b509050611e739190611e77565b5090565b5b80821115611e90576000816000905550600101611e78565b5090565b6000604051905090565b600080fd5b600080fd5b600080fd5b600080fd5b6000601f19601f8301169050919050565b7f4e487b7100000000000000000000000000000000000000000000000000000000600052604160045260246000fd5b611efb82611eb2565b810181811067ffffffffffffffff82111715611f1a57611f19611ec3565b5b80604052505050565b6000611f2d611e94565b9050611f398282611ef2565b919050565b600067ffffffffffffffff821115611f5957611f58611ec3565b5b611f6282611eb2565b9050602081019050919050565b82818337600083830152505050565b6000611f91611f8c84611f3e565b611f23565b905082815260208101848484011115611fad57611fac611ead565b5b611fb8848285611f6f565b509392505050565b600082601f830112611fd557611fd4611ea8565b5b8135611fe5848260208601611f7e565b91505092915050565b6000819050919050565b61200181611fee565b811461200c57600080fd5b50565b60008135905061201e81611ff8565b92915050565b60008060006060848603121561203d5761203c611e9e565b5b600084013567ffffffffffffffff81111561205b5761205a611ea3565b5b61206786828701611fc0565b93505060206120788682870161200f565b92505060406120898682870161200f565b9150509250925092565b61209c81611fee565b82525050565b60006020820190506120b76000830184612093565b92915050565b6000602082840312156120d3576120d2611e9e565b5b60006120e18482850161200f565b91505092915050565b600080fd5b600080fd5b60008083601f84011261210a57612109611ea8565b5b8235905067ffffffffffffffff811115612127576121266120ea565b5b602083019150836020820283011115612143576121426120ef565b5b9250929050565b60008060006040848603121561216357612162611e9e565b5b60006121718682870161200f565b935050602084013567ffffffffffffffff81111561219257612191611ea3565b5b61219e868287016120f4565b92509250509250925092565b600063ffffffff82169050919050565b6121c3816121aa565b82525050565b60006020820190506121de60008301846121ba565b92915050565b6000819050919050565b6121f7816121e4565b82525050565b600060208201905061221260008301846121ee565b92915050565b60008115159050919050565b61222d81612218565b811461223857600080fd5b50565b60008135905061224a81612224565b92915050565b60006020828403121561226657612265611e9e565b5b60006122748482850161223b565b91505092915050565b600073ffffffffffffffffffffffffffffffffffffffff82169050919050565b60006122a88261227d565b9050919050565b6122b88161229d565b82525050565b60006020820190506122d360008301846122af565b92915050565b6122e28161229d565b81146122ed57600080fd5b50565b6000813590506122ff816122d9565b92915050565b60006020828403121561231b5761231a611e9e565b5b6000612329848285016122f0565b91505092915050565b6000819050919050565b600061235761235261234d8461227d565b612332565b61227d565b9050919050565b60006123698261233c565b9050919050565b600061237b8261235e565b9050919050565b61238b81612370565b82525050565b60006020820190506123a66000830184612382565b92915050565b6123b581612218565b82525050565b60006040820190506123d060008301856123ac565b6123dd60208301846123ac565b9392505050565b600081519050919050565b600082825260208201905092915050565b60005b8381101561241e578082015181840152602081019050612403565b60008484015250505050565b6000612435826123e4565b61243f81856123ef565b935061244f818560208601612400565b61245881611eb2565b840191505092915050565b7f4e487b7100000000000000000000000000000000000000000000000000000000600052602160045260246000fd5b600381106124a3576124a2612463565b5b50565b60008190506124b482612492565b919050565b60006124c4826124a6565b9050919050565b6124d4816124b9565b82525050565b6000610140820190506124f0600083018d612093565b8181036020830152612502818c61242a565b9050612511604083018b6122af565b61251e606083018a612093565b61252b6080830189612093565b61253860a0830188612093565b61254560c08301876123ac565b61255260e08301866124cb565b612560610100830185612093565b61256e6101208301846122af565b9b9a5050505050505050505050565b600061ffff82169050919050565b6125948161257d565b82525050565b60006020820190506125af600083018461258b565b92915050565b600081519050919050565b600082825260208201905092915050565b6000819050602082019050919050565b6125ea81611fee565b82525050565b60006125fc83836125e1565b60208301905092915050565b6000602082019050919050565b6000612620826125b5565b61262a81856125c0565b9350612635836125d1565b8060005b8381101561266657815161264d88826125f0565b975061265883612608565b925050600181019050612639565b5085935050505092915050565b600060408201905061268860008301856123ac565b818103602083015261269a8184612615565b90509392505050565b7f4e487b7100000000000000000000000000000000000000000000000000000000600052601160045260246000fd5b60006126dd82611fee565b91507fffffffffffffffffffffffffffffffffffffffffffffffffffffffffffffffff820361270f5761270e6126a3565b5b600182019050919050565b7f4e487b7100000000000000000000000000000000000000000000000000000000600052602260045260246000fd5b6000600282049050600182168061276157607f821691505b6020821081036127745761277361271a565b5b50919050565b60008190508160005260206000209050919050565b60006020601f8301049050919050565b600082821b905092915050565b6000600883026127dc7fffffffffffffffffffffffffffffffffffffffffffffffffffffffffffffffff8261279f565b6127e6868361279f565b95508019841693508086168417925050509392505050565b600061281961281461280f84611fee565b612332565b611fee565b9050919050565b6000819050919050565b612833836127fe565b61284761283f82612820565b8484546127ac565b825550505050565b600090565b61285c61284f565b61286781848461282a565b505050565b5b8181101561288b57612880600082612854565b60018101905061286d565b5050565b601f8211156128d0576128a18161277a565b6128aa8461278f565b810160208510156128b9578190505b6128cd6128c58561278f565b83018261286c565b50505b505050565b600082821c905092915050565b60006128f3600019846008026128d5565b1980831691505092915050565b600061290c83836128e2565b9150826002028217905092915050565b612925826123e4565b67ffffffffffffffff81111561293e5761293d611ec3565b5b6129488254612749565b61295382828561288f565b600060209050601f8311600181146129865760008415612974578287015190505b61297e8582612900565b8655506129e6565b601f1984166129948661277a565b60005b828110156129bc57848901518255600182019150602085019450602081019050612997565b868310156129d957848901516129d5601f8916826128e2565b8355505b6001600288020188555050505b505050505050565b60006129f982611fee565b9150612a0483611fee565b9250828201905080821115612a1c57612a1b6126a3565b5b92915050565b6000604082019050612a3760008301856122af565b612a4460208301846122af565b9392505050565b612a54816121e4565b82525050565b612a638161257d565b82525050565b612a72816121aa565b82525050565b600081519050919050565b600082825260208201905092915050565b6000612a9f82612a78565b612aa98185612a83565b9350612ab9818560208601612400565b612ac281611eb2565b840191505092915050565b600060c083016000830151612ae56000860182612a4b565b506020830151612af860208601826125e1565b506040830151612b0b6040860182612a5a565b506060830151612b1e6060860182612a69565b506080830151612b316080860182612a69565b5060a083015184820360a0860152612b498282612a94565b9150508091505092915050565b60006020820190508181036000830152612b708184612acd565b905092915050565b600081519050612b8781611ff8565b92915050565b600060208284031215612ba357612ba2611e9e565b5b6000612bb184828501612b78565b91505092915050565b6000604082019050612bcf6000830185612093565b612bdc60208301846121ba565b9392505050565b7f4d7573742062652070726f706f736564206f776e657200000000000000000000600082015250565b6000612c196016836123ef565b9150612c2482612be3565b602082019050919050565b60006020820190508181036000830152612c4881612c0c565b9050919050565b6000606082019050612c6460008301866122af565b612c7160208301856122af565b612c7e60408301846122af565b949350505050565b7f496e76616c69642067616d652069640000000000000000000000000000000000600082015250565b6000612cbc600f836123ef565b9150612cc782612c86565b602082019050919050565b60006020820190508181036000830152612ceb81612caf565b9050919050565b7f4174206c656173742074776f20706c617965727320617265207265717569726560008201527f6420746f207374617274207468652067616d6500000000000000000000000000602082015250565b6000612d4e6033836123ef565b9150612d5982612cf2565b604082019050919050565b60006020820190508181036000830152612d7d81612d41565b9050919050565b7f5468652067616d65206973206f76657200000000000000000000000000000000600082015250565b6000612dba6010836123ef565b9150612dc582612d84565b602082019050919050565b60006020820190508181036000830152612de981612dad565b9050919050565b7f72657175657374206e6f7420666f756e64000000000000000000000000000000600082015250565b6000612e266011836123ef565b9150612e3182612df0565b602082019050919050565b60006020820190508181036000830152612e5581612e19565b9050919050565b7f596f75206861766520616c7265616479206a6f696e656420746869732067616d60008201527f6500000000000000000000000000000000000000000000000000000000000000602082015250565b6000612eb86021836123ef565b9150612ec382612e5c565b604082019050919050565b60006020820190508181036000830152612ee781612eab565b9050919050565b7f43616e2774206a6f696e20617420746865206d6f6d656e740000000000000000600082015250565b6000612f246018836123ef565b9150612f2f82612eee565b602082019050919050565b60006020820190508181036000830152612f5381612f17565b9050919050565b7f496e636f7272656374207374616b6520616d6f756e7400000000000000000000600082015250565b6000612f906016836123ef565b9150612f9b82612f5a565b602082019050919050565b60006020820190508181036000830152612fbf81612f83565b9050919050565b7f47616d65206e6f7420696e2070726f6772657373000000000000000000000000600082015250565b6000612ffc6014836123ef565b915061300782612fc6565b602082019050919050565b6000602082019050818103600083015261302b81612fef565b9050919050565b7f4e6f20706c617965727320696e207468652067616d6500000000000000000000600082015250565b60006130686016836123ef565b915061307382613032565b602082019050919050565b600060208201905081810360008301526130978161305b565b9050919050565b7f4e487b7100000000000000000000000000000000000000000000000000000000600052601260045260246000fd5b60006130d882611fee565b91506130e383611fee565b9250826130f3576130f261309e565b5b828206905092915050565b7f4e487b7100000000000000000000000000000000000000000000000000000000600052603260045260246000fd5b600080fd5b82818337505050565b600061314783856125c0565b93507f07ffffffffffffffffffffffffffffffffffffffffffffffffffffffffffffff83111561317a5761317961312d565b5b60208302925061318b838584613132565b82840190509392505050565b60006040820190506131ac6000830186612093565b81810360208301526131bf81848661313b565b9050949350505050565b7f4f6e6c792063616c6c61626c65206279206f776e657200000000000000000000600082015250565b60006131ff6016836123ef565b915061320a826131c9565b602082019050919050565b6000602082019050818103600083015261322e816131f2565b9050919050565b61323e81612218565b82525050565b60208201600082015161325a6000850182613235565b50505050565b60006020820190506132756000830184613244565b92915050565b7f6e6f2072616e646f6d20776f72647320617661696c61626c6500000000000000600082015250565b60006132b16019836123ef565b91506132bc8261327b565b602082019050919050565b600060208201905081810360008301526132e0816132a4565b9050919050565b7f43616e6e6f74207472616e7366657220746f2073656c66000000000000000000600082015250565b600061331d6017836123ef565b9150613328826132e7565b602082019050919050565b6000602082019050818103600083015261334c81613310565b905091905056fea2646970667358221220821d9a3ce68202cd8bb11b35c199aae77a1cd01fe338f9af09bdde911b3f421164736f6c63430008180033",
  "linkReferences": {},
  "deployedLinkReferences": {}
}