{
  "_format": "hh-sol-artifact-1",
  "contractName": "GreedyPig",
  "sourceName": "contracts/GreedyPig.sol",
  "abi": [
    {
      "inputs": [
        {
          "internalType": "bytes32",
          "name": "_keyhash",
          "type": "bytes32"
        },
        {
          "internalType": "uint256",
          "name": "subscriptionId",
          "type": "uint256"
        },
        {
          "internalType": "address",
          "name": "_VRFConsumerBaseV2Plus",
          "type": "address"
        }
      ],
      "stateMutability": "nonpayable",
      "type": "constructor"
    },
    {
      "inputs": [
        {
          "internalType": "address",
          "name": "have",
          "type": "address"
        },
        {
          "internalType": "address",
          "name": "want",
          "type": "address"
        }
      ],
      "name": "OnlyCoordinatorCanFulfill",
      "type": "error"
    },
    {
      "inputs": [
        {
          "internalType": "address",
          "name": "have",
          "type": "address"
        },
        {
          "internalType": "address",
          "name": "owner",
          "type": "address"
        },
        {
          "internalType": "address",
          "name": "coordinator",
          "type": "address"
        }
      ],
      "name": "OnlyOwnerOrCoordinator",
      "type": "error"
    },
    {
      "inputs": [],
      "name": "ZeroAddress",
      "type": "error"
    },
    {
      "anonymous": false,
      "inputs": [
        {
          "indexed": false,
          "internalType": "address",
          "name": "vrfCoordinator",
          "type": "address"
        }
      ],
      "name": "CoordinatorSet",
      "type": "event"
    },
    {
      "anonymous": false,
      "inputs": [
        {
          "indexed": true,
          "internalType": "uint256",
          "name": "gameId",
          "type": "uint256"
        },
        {
          "indexed": true,
          "internalType": "address",
          "name": "creator",
          "type": "address"
        }
      ],
      "name": "GameCreated",
      "type": "event"
    },
    {
      "anonymous": false,
      "inputs": [
        {
          "indexed": true,
          "internalType": "uint256",
          "name": "gameId",
          "type": "uint256"
        },
        {
          "indexed": true,
          "internalType": "address",
          "name": "winner",
          "type": "address"
        }
      ],
      "name": "GameEnded",
      "type": "event"
    },
    {
      "anonymous": false,
      "inputs": [
        {
          "indexed": true,
          "internalType": "address",
          "name": "from",
          "type": "address"
        },
        {
          "indexed": true,
          "internalType": "address",
          "name": "to",
          "type": "address"
        }
      ],
      "name": "OwnershipTransferRequested",
      "type": "event"
    },
    {
      "anonymous": false,
      "inputs": [
        {
          "indexed": true,
          "internalType": "address",
          "name": "from",
          "type": "address"
        },
        {
          "indexed": true,
          "internalType": "address",
          "name": "to",
          "type": "address"
        }
      ],
      "name": "OwnershipTransferred",
      "type": "event"
    },
    {
      "anonymous": false,
      "inputs": [
        {
          "indexed": true,
          "internalType": "uint256",
          "name": "gameId",
          "type": "uint256"
        },
        {
          "indexed": true,
          "internalType": "address",
          "name": "player",
          "type": "address"
        }
      ],
      "name": "PlayerJoined",
      "type": "event"
    },
    {
      "anonymous": false,
      "inputs": [
        {
          "indexed": true,
          "internalType": "uint256",
          "name": "gameId",
          "type": "uint256"
        },
        {
          "indexed": true,
          "internalType": "address",
          "name": "player",
          "type": "address"
        },
        {
          "indexed": false,
          "internalType": "uint256",
          "name": "roll",
          "type": "uint256"
        }
      ],
      "name": "PlayerRoll",
      "type": "event"
    },
    {
      "anonymous": false,
      "inputs": [
        {
          "indexed": false,
          "internalType": "uint256",
          "name": "requestId",
          "type": "uint256"
        },
        {
          "indexed": false,
          "internalType": "uint256",
          "name": "randomWord",
          "type": "uint256"
        }
      ],
      "name": "RequestFulfilled",
      "type": "event"
    },
    {
      "anonymous": false,
      "inputs": [
        {
          "indexed": false,
          "internalType": "uint256",
          "name": "requestId",
          "type": "uint256"
        },
        {
          "indexed": false,
          "internalType": "uint32",
          "name": "numWords",
          "type": "uint32"
        }
      ],
      "name": "RequestSent",
      "type": "event"
    },
    {
      "inputs": [],
      "name": "acceptOwnership",
      "outputs": [],
      "stateMutability": "nonpayable",
      "type": "function"
    },
    {
      "inputs": [],
      "name": "callbackGasLimit",
      "outputs": [
        {
          "internalType": "uint32",
          "name": "",
          "type": "uint32"
        }
      ],
      "stateMutability": "view",
      "type": "function"
    },
    {
      "inputs": [
        {
          "internalType": "string",
          "name": "_name",
          "type": "string"
        },
        {
          "internalType": "uint256",
          "name": "_targetScore",
          "type": "uint256"
        },
        {
          "internalType": "bool",
          "name": "_bet",
          "type": "bool"
        },
        {
          "internalType": "uint256",
          "name": "_stakemount",
          "type": "uint256"
        }
      ],
      "name": "createGame",
      "outputs": [],
      "stateMutability": "nonpayable",
      "type": "function"
    },
    {
      "inputs": [],
      "name": "gameId",
      "outputs": [
        {
          "internalType": "uint256",
          "name": "",
          "type": "uint256"
        }
      ],
      "stateMutability": "view",
      "type": "function"
    },
    {
      "inputs": [],
      "name": "getBalance",
      "outputs": [
        {
          "internalType": "uint256",
          "name": "",
          "type": "uint256"
        }
      ],
      "stateMutability": "view",
      "type": "function"
    },
    {
      "inputs": [
        {
          "internalType": "uint256",
          "name": "_gameId",
          "type": "uint256"
        }
      ],
      "name": "getGame",
      "outputs": [
        {
          "internalType": "uint256",
          "name": "id",
          "type": "uint256"
        },
        {
          "internalType": "string",
          "name": "name",
          "type": "string"
        },
        {
          "internalType": "address",
          "name": "creator",
          "type": "address"
        },
        {
          "internalType": "uint256",
          "name": "targetScore",
          "type": "uint256"
        },
        {
          "internalType": "uint256",
          "name": "stakemount",
          "type": "uint256"
        },
        {
          "internalType": "uint256",
          "name": "rollOutcome",
          "type": "uint256"
        },
        {
          "internalType": "bool",
          "name": "bet",
          "type": "bool"
        },
        {
          "internalType": "enum GreedyPig.GameStatus",
          "name": "status",
          "type": "uint8"
        },
        {
          "internalType": "uint256",
          "name": "currentPlayerIndex",
          "type": "uint256"
        },
        {
          "internalType": "address",
          "name": "winner",
          "type": "address"
        },
        {
          "components": [
            {
              "internalType": "address",
              "name": "player",
              "type": "address"
            },
            {
              "internalType": "uint256",
              "name": "turnScore",
              "type": "uint256"
            },
            {
              "internalType": "uint256",
              "name": "totalScore",
              "type": "uint256"
            },
            {
              "internalType": "bool",
              "name": "deposited",
              "type": "bool"
            }
          ],
          "internalType": "struct GreedyPig.PlayerInfo[]",
          "name": "players",
          "type": "tuple[]"
        }
      ],
      "stateMutability": "view",
      "type": "function"
    },
    {
      "inputs": [],
      "name": "getGameId",
      "outputs": [
        {
          "internalType": "uint256",
          "name": "",
          "type": "uint256"
        }
      ],
      "stateMutability": "view",
      "type": "function"
    },
    {
      "inputs": [
        {
          "internalType": "uint256",
          "name": "_requestId",
          "type": "uint256"
        }
      ],
      "name": "getRequestStatus",
      "outputs": [
        {
          "internalType": "bool",
          "name": "fulfilled",
          "type": "bool"
        },
        {
          "internalType": "uint256",
          "name": "randomWord",
          "type": "uint256"
        }
      ],
      "stateMutability": "view",
      "type": "function"
    },
    {
      "inputs": [
        {
          "internalType": "uint256",
          "name": "_gameId",
          "type": "uint256"
        }
      ],
      "name": "joinGame",
      "outputs": [],
      "stateMutability": "payable",
      "type": "function"
    },
    {
      "inputs": [],
      "name": "keyHash",
      "outputs": [
        {
          "internalType": "bytes32",
          "name": "",
          "type": "bytes32"
        }
      ],
      "stateMutability": "view",
      "type": "function"
    },
    {
      "inputs": [],
      "name": "lastRequestId",
      "outputs": [
        {
          "internalType": "uint256",
          "name": "",
          "type": "uint256"
        }
      ],
      "stateMutability": "view",
      "type": "function"
    },
    {
      "inputs": [],
      "name": "numWords",
      "outputs": [
        {
          "internalType": "uint32",
          "name": "",
          "type": "uint32"
        }
      ],
      "stateMutability": "view",
      "type": "function"
    },
    {
      "inputs": [],
      "name": "owner",
      "outputs": [
        {
          "internalType": "address",
          "name": "",
          "type": "address"
        }
      ],
      "stateMutability": "view",
      "type": "function"
    },
    {
      "inputs": [
        {
          "internalType": "uint256",
          "name": "_gameId",
          "type": "uint256"
        }
      ],
      "name": "passTurn",
      "outputs": [],
      "stateMutability": "nonpayable",
      "type": "function"
    },
    {
      "inputs": [
        {
          "internalType": "uint256",
          "name": "requestId",
          "type": "uint256"
        },
        {
          "internalType": "uint256[]",
          "name": "randomWords",
          "type": "uint256[]"
        }
      ],
      "name": "rawFulfillRandomWords",
      "outputs": [],
      "stateMutability": "nonpayable",
      "type": "function"
    },
    {
      "inputs": [],
      "name": "requestConfirmations",
      "outputs": [
        {
          "internalType": "uint16",
          "name": "",
          "type": "uint16"
        }
      ],
      "stateMutability": "view",
      "type": "function"
    },
    {
      "inputs": [
        {
          "internalType": "uint256",
          "name": "",
          "type": "uint256"
        }
      ],
      "name": "requestIds",
      "outputs": [
        {
          "internalType": "uint256",
          "name": "",
          "type": "uint256"
        }
      ],
      "stateMutability": "view",
      "type": "function"
    },
    {
      "inputs": [
        {
          "internalType": "bool",
          "name": "enableNativePayment",
          "type": "bool"
        }
      ],
      "name": "requestRandomWords",
      "outputs": [
        {
          "internalType": "uint256",
          "name": "requestId",
          "type": "uint256"
        }
      ],
      "stateMutability": "nonpayable",
      "type": "function"
    },
    {
      "inputs": [
        {
          "internalType": "uint256",
          "name": "_gameId",
          "type": "uint256"
        }
      ],
      "name": "rollDice",
      "outputs": [],
      "stateMutability": "nonpayable",
      "type": "function"
    },
    {
      "inputs": [
        {
          "internalType": "uint256",
          "name": "",
          "type": "uint256"
        }
      ],
      "name": "s_requests",
      "outputs": [
        {
          "internalType": "bool",
          "name": "fulfilled",
          "type": "bool"
        },
        {
          "internalType": "bool",
          "name": "exists",
          "type": "bool"
        },
        {
          "internalType": "uint256",
          "name": "randomWord",
          "type": "uint256"
        }
      ],
      "stateMutability": "view",
      "type": "function"
    },
    {
      "inputs": [],
      "name": "s_subscriptionId",
      "outputs": [
        {
          "internalType": "uint256",
          "name": "",
          "type": "uint256"
        }
      ],
      "stateMutability": "view",
      "type": "function"
    },
    {
      "inputs": [],
      "name": "s_vrfCoordinator",
      "outputs": [
        {
          "internalType": "contract IVRFCoordinatorV2Plus",
          "name": "",
          "type": "address"
        }
      ],
      "stateMutability": "view",
      "type": "function"
    },
    {
      "inputs": [
        {
          "internalType": "address",
          "name": "_vrfCoordinator",
          "type": "address"
        }
      ],
      "name": "setCoordinator",
      "outputs": [],
      "stateMutability": "nonpayable",
      "type": "function"
    },
    {
      "inputs": [
        {
          "internalType": "address",
          "name": "to",
          "type": "address"
        }
      ],
      "name": "transferOwnership",
      "outputs": [],
      "stateMutability": "nonpayable",
      "type": "function"
    },
    {
      "stateMutability": "payable",
      "type": "receive"
    }
  ],
  "bytecode": "0x6080604052620186a0600d60006101000a81548163ffffffff021916908363ffffffff1602179055506003600d60046101000a81548161ffff021916908361ffff1602179055506001600d60066101000a81548163ffffffff021916908363ffffffff1602179055503480156200007557600080fd5b50604051620041003803806200410083398181016040528101906200009b91906200046a565b80338060008073ffffffffffffffffffffffffffffffffffffffff168273ffffffffffffffffffffffffffffffffffffffff160362000111576040517f08c379a0000000000000000000000000000000000000000000000000000000008152600401620001089062000527565b60405180910390fd5b816000806101000a81548173ffffffffffffffffffffffffffffffffffffffff021916908373ffffffffffffffffffffffffffffffffffffffff160217905550600073ffffffffffffffffffffffffffffffffffffffff168173ffffffffffffffffffffffffffffffffffffffff1614620001985762000197816200025b60201b60201c565b5b505050600073ffffffffffffffffffffffffffffffffffffffff168173ffffffffffffffffffffffffffffffffffffffff160362000202576040517fd92e233d00000000000000000000000000000000000000000000000000000000815260040160405180910390fd5b80600260006101000a81548173ffffffffffffffffffffffffffffffffffffffff021916908373ffffffffffffffffffffffffffffffffffffffff1602179055505082600c8190555081600981905550505050620005bb565b3373ffffffffffffffffffffffffffffffffffffffff168173ffffffffffffffffffffffffffffffffffffffff1603620002cc576040517f08c379a0000000000000000000000000000000000000000000000000000000008152600401620002c39062000599565b60405180910390fd5b80600160006101000a81548173ffffffffffffffffffffffffffffffffffffffff021916908373ffffffffffffffffffffffffffffffffffffffff1602179055508073ffffffffffffffffffffffffffffffffffffffff1660008054906101000a900473ffffffffffffffffffffffffffffffffffffffff1673ffffffffffffffffffffffffffffffffffffffff167fed8889f560326eb138920d842192f0eb3dd22b4f139c87a2c57538e05bae127860405160405180910390a350565b600080fd5b6000819050919050565b620003a4816200038f565b8114620003b057600080fd5b50565b600081519050620003c48162000399565b92915050565b6000819050919050565b620003df81620003ca565b8114620003eb57600080fd5b50565b600081519050620003ff81620003d4565b92915050565b600073ffffffffffffffffffffffffffffffffffffffff82169050919050565b6000620004328262000405565b9050919050565b620004448162000425565b81146200045057600080fd5b50565b600081519050620004648162000439565b92915050565b6000806000606084860312156200048657620004856200038a565b5b60006200049686828701620003b3565b9350506020620004a986828701620003ee565b9250506040620004bc8682870162000453565b9150509250925092565b600082825260208201905092915050565b7f43616e6e6f7420736574206f776e657220746f207a65726f0000000000000000600082015250565b60006200050f601883620004c6565b91506200051c82620004d7565b602082019050919050565b60006020820190508181036000830152620005428162000500565b9050919050565b7f43616e6e6f74207472616e7366657220746f2073656c66000000000000000000600082015250565b600062000581601783620004c6565b91506200058e8262000549565b602082019050919050565b60006020820190508181036000830152620005b48162000572565b9050919050565b613b3580620005cb6000396000f3fe60806040526004361061014f5760003560e01c80638ea98117116100b6578063c0bd83511161006f578063c0bd835114610497578063d7c81b55146104c2578063d8a4676f146104ed578063efaa55a01461052b578063f2fde38b14610547578063fc2a88c31461057057610156565b80638ea98117146103695780639eccacf614610392578063a168fa89146103bd578063a2f77bcc146103fc578063acfff37714610443578063b0fb162f1461046c57610156565b80637392a771116101085780637392a7711461025757806379ba5097146102945780637ccfd7fc146102ab5780638796ba8c146102d65780638ac00021146103135780638da5cb5b1461033e57610156565b806312065fe01461015b5780631a5375e1146101865780631fe543e3146101af57806324f74697146101d857806351f3e29f1461020357806361728f391461022c57610156565b3661015657005b600080fd5b34801561016757600080fd5b5061017061059b565b60405161017d919061243a565b60405180910390f35b34801561019257600080fd5b506101ad60048036038101906101a89190612495565b6105a3565b005b3480156101bb57600080fd5b506101d660048036038101906101d19190612527565b61074b565b005b3480156101e457600080fd5b506101ed610811565b6040516101fa91906125a6565b60405180910390f35b34801561020f57600080fd5b5061022a6004803603810190610225919061273a565b610827565b005b34801561023857600080fd5b5061024161099b565b60405161024e91906127d6565b60405180910390f35b34801561026357600080fd5b5061027e600480360381019061027991906127f1565b6109a1565b60405161028b919061243a565b60405180910390f35b3480156102a057600080fd5b506102a9610bd1565b005b3480156102b757600080fd5b506102c0610d66565b6040516102cd91906125a6565b60405180910390f35b3480156102e257600080fd5b506102fd60048036038101906102f89190612495565b610d7c565b60405161030a919061243a565b60405180910390f35b34801561031f57600080fd5b50610328610da0565b604051610335919061243a565b60405180910390f35b34801561034a57600080fd5b50610353610da6565b604051610360919061285f565b60405180910390f35b34801561037557600080fd5b50610390600480360381019061038b91906128a6565b610dcf565b005b34801561039e57600080fd5b506103a7610fb0565b6040516103b49190612932565b60405180910390f35b3480156103c957600080fd5b506103e460048036038101906103df9190612495565b610fd6565b6040516103f39392919061295c565b60405180910390f35b34801561040857600080fd5b50610423600480360381019061041e9190612495565b61101a565b60405161043a9b9a99989796959493929190612bba565b60405180910390f35b34801561044f57600080fd5b5061046a60048036038101906104659190612495565b611350565b005b34801561047857600080fd5b5061048161176b565b60405161048e9190612c90565b60405180910390f35b3480156104a357600080fd5b506104ac61177f565b6040516104b9919061243a565b60405180910390f35b3480156104ce57600080fd5b506104d7611789565b6040516104e4919061243a565b60405180910390f35b3480156104f957600080fd5b50610514600480360381019061050f9190612495565b61178f565b604051610522929190612cab565b60405180910390f35b61054560048036038101906105409190612495565b61186b565b005b34801561055357600080fd5b5061056e600480360381019061056991906128a6565b611beb565b005b34801561057c57600080fd5b50610585611bff565b604051610592919061243a565b60405180910390f35b600047905090565b806000811180156105b657506003548111155b6105f5576040517f08c379a00000000000000000000000000000000000000000000000000000000081526004016105ec90612d20565b60405180910390fd5b8160006005600083815260200190815260200160002090503373ffffffffffffffffffffffffffffffffffffffff168160080182600a01548154811061063e5761063d612d40565b5b9060005260206000200160009054906101000a900473ffffffffffffffffffffffffffffffffffffffff1673ffffffffffffffffffffffffffffffffffffffff16146106bf576040517f08c379a00000000000000000000000000000000000000000000000000000000081526004016106b690612dbb565b60405180910390fd5b600060056000868152602001908152602001600020905060008160070160003373ffffffffffffffffffffffffffffffffffffffff1673ffffffffffffffffffffffffffffffffffffffff168152602001908152602001600020905080600101548160020160008282546107339190612e0a565b9250508190555061074386611c05565b505050505050565b600260009054906101000a900473ffffffffffffffffffffffffffffffffffffffff1673ffffffffffffffffffffffffffffffffffffffff163373ffffffffffffffffffffffffffffffffffffffff16146108015733600260009054906101000a900473ffffffffffffffffffffffffffffffffffffffff166040517f1cf993f40000000000000000000000000000000000000000000000000000000081526004016107f8929190612e3e565b60405180910390fd5b61080c838383611d0d565b505050565b600d60009054906101000a900463ffffffff1681565b6003600081548092919061083a90612e67565b91905055506000600560006003548152602001908152602001600020905060035481600001819055508481600101908161087491906130b1565b50338160020160006101000a81548173ffffffffffffffffffffffffffffffffffffffff021916908373ffffffffffffffffffffffffffffffffffffffff160217905550838160030181905550818160040181905550828160060160006101000a81548160ff021916908315150217905550600660003373ffffffffffffffffffffffffffffffffffffffff1673ffffffffffffffffffffffffffffffffffffffff16815260200190815260200160002060035490806001815401808255809150506001900390600052602060002001600090919091909150553373ffffffffffffffffffffffffffffffffffffffff166003547fc3e0f84839dc888c892a013d10c8f9d6dc05a21a879d0ce468ca558013e9121c60405160405180910390a35050505050565b600c5481565b6000600260009054906101000a900473ffffffffffffffffffffffffffffffffffffffff1673ffffffffffffffffffffffffffffffffffffffff16639b1c385e6040518060c00160405280600c5481526020016009548152602001600d60049054906101000a900461ffff1661ffff168152602001600d60009054906101000a900463ffffffff1663ffffffff168152602001600d60069054906101000a900463ffffffff1663ffffffff168152602001610a6b6040518060200160405280881515815250611e30565b8152506040518263ffffffff1660e01b8152600401610a8a919061328e565b6020604051808303816000875af1158015610aa9573d6000803e3d6000fd5b505050506040513d601f19601f82011682018060405250810190610acd91906132c5565b9050604051806060016040528060001515815260200160011515815260200160008152506008600083815260200190815260200160002060008201518160000160006101000a81548160ff02191690831515021790555060208201518160000160016101000a81548160ff02191690831515021790555060408201518160010155905050600a81908060018154018082558091505060019003906000526020600020016000909190919091505580600b819055507fcc58b13ad3eab50626c6a6300b1d139cd6ebb1688a7cced9461c2f7e762665ee81600d60069054906101000a900463ffffffff16604051610bc49291906132f2565b60405180910390a1919050565b600160009054906101000a900473ffffffffffffffffffffffffffffffffffffffff1673ffffffffffffffffffffffffffffffffffffffff163373ffffffffffffffffffffffffffffffffffffffff1614610c61576040517f08c379a0000000000000000000000000000000000000000000000000000000008152600401610c5890613367565b60405180910390fd5b60008060009054906101000a900473ffffffffffffffffffffffffffffffffffffffff169050336000806101000a81548173ffffffffffffffffffffffffffffffffffffffff021916908373ffffffffffffffffffffffffffffffffffffffff1602179055506000600160006101000a81548173ffffffffffffffffffffffffffffffffffffffff021916908373ffffffffffffffffffffffffffffffffffffffff1602179055503373ffffffffffffffffffffffffffffffffffffffff168173ffffffffffffffffffffffffffffffffffffffff167f8be0079c531659141344cd1fd0a4f28419497f9722a3daafe3b4186f6b6457e060405160405180910390a350565b600d60069054906101000a900463ffffffff1681565b600a8181548110610d8c57600080fd5b906000526020600020016000915090505481565b60095481565b60008060009054906101000a900473ffffffffffffffffffffffffffffffffffffffff16905090565b610dd7610da6565b73ffffffffffffffffffffffffffffffffffffffff163373ffffffffffffffffffffffffffffffffffffffff1614158015610e605750600260009054906101000a900473ffffffffffffffffffffffffffffffffffffffff1673ffffffffffffffffffffffffffffffffffffffff163373ffffffffffffffffffffffffffffffffffffffff1614155b15610ecf5733610e6e610da6565b600260009054906101000a900473ffffffffffffffffffffffffffffffffffffffff166040517f061db9c1000000000000000000000000000000000000000000000000000000008152600401610ec693929190613387565b60405180910390fd5b600073ffffffffffffffffffffffffffffffffffffffff168173ffffffffffffffffffffffffffffffffffffffff1603610f35576040517fd92e233d00000000000000000000000000000000000000000000000000000000815260040160405180910390fd5b80600260006101000a81548173ffffffffffffffffffffffffffffffffffffffff021916908373ffffffffffffffffffffffffffffffffffffffff1602179055507fd1a6a14209a385a964d036e404cb5cfb71f4000cdb03c9366292430787261be681604051610fa5919061285f565b60405180910390a150565b600260009054906101000a900473ffffffffffffffffffffffffffffffffffffffff1681565b60086020528060005260406000206000915090508060000160009054906101000a900460ff16908060000160019054906101000a900460ff16908060010154905083565b6000606060008060008060008060008060608b60008111801561103f57506003548111155b61107e576040517f08c379a000000000000000000000000000000000000000000000000000000000815260040161107590612d20565b60405180910390fd5b6000600560008f815260200190815260200160002090506000816008018054905067ffffffffffffffff8111156110b8576110b76125d7565b5b6040519080825280602002602001820160405280156110f157816020015b6110de6123e1565b8152602001906001900390816110d65790505b50905060005b826008018054905081101561120f57600083600801828154811061111e5761111d612d40565b5b9060005260206000200160009054906101000a900473ffffffffffffffffffffffffffffffffffffffff16905060008460070160008373ffffffffffffffffffffffffffffffffffffffff1673ffffffffffffffffffffffffffffffffffffffff168152602001908152602001600020905060405180608001604052808373ffffffffffffffffffffffffffffffffffffffff16815260200182600101548152602001826002015481526020018260030160009054906101000a900460ff1615158152508484815181106111f5576111f4612d40565b5b6020026020010181905250505080806001019150506110f7565b508160000154826001018360020160009054906101000a900473ffffffffffffffffffffffffffffffffffffffff168460030154856004015486600501548760060160009054906101000a900460ff168860090160009054906101000a900460ff1689600a01548a600b0160009054906101000a900473ffffffffffffffffffffffffffffffffffffffff168a8980546112a890612ede565b80601f01602080910402602001604051908101604052809291908181526020018280546112d490612ede565b80156113215780601f106112f657610100808354040283529160200191611321565b820191906000526020600020905b81548152906001019060200180831161130457829003601f168201915b505050505099509d509d509d509d509d509d509d509d509d509d509d5050505091939597999b90929496989a50565b8060008111801561136357506003548111155b6113a2576040517f08c379a000000000000000000000000000000000000000000000000000000000815260040161139990612d20565b60405180910390fd5b8160006005600083815260200190815260200160002090503373ffffffffffffffffffffffffffffffffffffffff168160080182600a0154815481106113eb576113ea612d40565b5b9060005260206000200160009054906101000a900473ffffffffffffffffffffffffffffffffffffffff1673ffffffffffffffffffffffffffffffffffffffff161461146c576040517f08c379a000000000000000000000000000000000000000000000000000000000815260040161146390612dbb565b60405180910390fd5b60006005600086815260200190815260200160002090506002816008018054905010156114ce576040517f08c379a00000000000000000000000000000000000000000000000000000000081526004016114c590613430565b60405180910390fd5b6114d781611ec8565b15611517576040517f08c379a000000000000000000000000000000000000000000000000000000000815260040161150e9061349c565b60405180910390fd5b6000600281111561152b5761152a612a12565b5b8160090160009054906101000a900460ff16600281111561154f5761154e612a12565b5b036115825760018160090160006101000a81548160ff0219169083600281111561157c5761157b612a12565b5b02179055505b600061158c611f09565b90508082600501819055503373ffffffffffffffffffffffffffffffffffffffff16867f84c283c54b9dd7c119a547366366504244b6d5c87460f44ffe83463b000af1e7836040516115de919061243a565b60405180910390a360008260070160003373ffffffffffffffffffffffffffffffffffffffff1673ffffffffffffffffffffffffffffffffffffffff16815260200190815260200160002090506001820361164b576000816001018190555061164687611c05565b611762565b8181600101600082825461165f9190612e0a565b9250508190555082600301548160020154826001015461167f9190612e0a565b106117615760028360090160006101000a81548160ff021916908360028111156116ac576116ab612a12565b5b021790555080600101548160020160008282546116c99190612e0a565b925050819055503383600b0160006101000a81548173ffffffffffffffffffffffffffffffffffffffff021916908373ffffffffffffffffffffffffffffffffffffffff16021790555061171c87611f40565b3373ffffffffffffffffffffffffffffffffffffffff16877f3d5fcd8fa3235aeb3897f25c8ea49989174981afcb01b9d03189d1056a16775b60405160405180910390a35b5b50505050505050565b600d60049054906101000a900461ffff1681565b6000600354905090565b60035481565b6000806008600084815260200190815260200160002060000160019054906101000a900460ff166117f5576040517f08c379a00000000000000000000000000000000000000000000000000000000081526004016117ec90613508565b60405180910390fd5b6000600860008581526020019081526020016000206040518060600160405290816000820160009054906101000a900460ff161515151581526020016000820160019054906101000a900460ff161515151581526020016001820154815250509050806000015181604001519250925050915091565b8060008111801561187e57506003548111155b6118bd576040517f08c379a00000000000000000000000000000000000000000000000000000000081526004016118b490612d20565b60405180910390fd5b60006005600084815260200190815260200160002090506118de8333612163565b1561191e576040517f08c379a00000000000000000000000000000000000000000000000000000000081526004016119159061359a565b60405180910390fd5b6000600281111561193257611931612a12565b5b8160090160009054906101000a900460ff16600281111561195657611955612a12565b5b14611996576040517f08c379a000000000000000000000000000000000000000000000000000000000815260040161198d90613606565b60405180910390fd5b806004015434146119dc576040517f08c379a00000000000000000000000000000000000000000000000000000000081526004016119d390613672565b60405180910390fd5b60405180608001604052803373ffffffffffffffffffffffffffffffffffffffff1681526020016000815260200160008152602001600115158152508160070160003373ffffffffffffffffffffffffffffffffffffffff1673ffffffffffffffffffffffffffffffffffffffff16815260200190815260200160002060008201518160000160006101000a81548173ffffffffffffffffffffffffffffffffffffffff021916908373ffffffffffffffffffffffffffffffffffffffff160217905550602082015181600101556040820151816002015560608201518160030160006101000a81548160ff02191690831515021790555090505080600801339080600181540180825580915050600190039060005260206000200160009091909190916101000a81548173ffffffffffffffffffffffffffffffffffffffff021916908373ffffffffffffffffffffffffffffffffffffffff160217905550600760003373ffffffffffffffffffffffffffffffffffffffff1673ffffffffffffffffffffffffffffffffffffffff1681526020019081526020016000208390806001815401808255809150506001900390600052602060002001600090919091909150553373ffffffffffffffffffffffffffffffffffffffff16837f87969bc7faf902221a147b95ceba76e011c5efb0339a0a8ee7a2bb82d9cfbbd660405160405180910390a3505050565b611bf3612225565b611bfc816122b5565b50565b600b5481565b600060056000838152602001908152602001600020905060016002811115611c3057611c2f612a12565b5b8160090160009054906101000a900460ff166002811115611c5457611c53612a12565b5b14611c94576040517f08c379a0000000000000000000000000000000000000000000000000000000008152600401611c8b906136de565b60405180910390fd5b6000816008018054905011611cde576040517f08c379a0000000000000000000000000000000000000000000000000000000008152600401611cd59061374a565b60405180910390fd5b8060080180549050600182600a0154611cf79190612e0a565b611d019190613799565b81600a01819055505050565b6008600084815260200190815260200160002060000160019054906101000a900460ff16611d70576040517f08c379a0000000000000000000000000000000000000000000000000000000008152600401611d6790613508565b60405180910390fd5b60016008600085815260200190815260200160002060000160006101000a81548160ff02191690831515021790555060006001600684846000818110611db957611db8612d40565b5b90506020020135611dca9190613799565b611dd49190612e0a565b90508060086000868152602001908152602001600020600101819055507f5c69e7026b653d8606b5613bb00fd8c4b0504b1cbe8db600c406faac180924d58482604051611e229291906137ca565b60405180910390a150505050565b60607f92fd13387c7fe7befbc38d303d6468778fb9731bc4583f17d92989c6fcfdeaaa82604051602401611e64919061380f565b604051602081830303815290604052907bffffffffffffffffffffffffffffffffffffffffffffffffffffffff19166020820180517bffffffffffffffffffffffffffffffffffffffffffffffffffffffff83818316178352505050509050919050565b6000600280811115611edd57611edc612a12565b5b8260090160009054906101000a900460ff166002811115611f0157611f00612a12565b5b149050919050565b600080611f1660006109a1565b9050600080611f248361178f565b915091508115611f3957809350505050611f3d565b5050505b90565b600460009054906101000a900460ff1615611f90576040517f08c379a0000000000000000000000000000000000000000000000000000000008152600401611f8790613876565b60405180910390fd5b6001600460006101000a81548160ff0219169083151502179055506000600560008381526020019081526020016000209050600280811115611fd557611fd4612a12565b5b8160090160009054906101000a900460ff166002811115611ff957611ff8612a12565b5b14612039576040517f08c379a0000000000000000000000000000000000000000000000000000000008152600401612030906138e2565b60405180910390fd5b600081600b0160009054906101000a900473ffffffffffffffffffffffffffffffffffffffff16905060006064605a8460080180549050856004015461207f9190613902565b6120899190613902565b6120939190613944565b905060008273ffffffffffffffffffffffffffffffffffffffff16826040516120bb906139a6565b60006040518083038185875af1925050503d80600081146120f8576040519150601f19603f3d011682016040523d82523d6000602084013e6120fd565b606091505b5050905080612141576040517f08c379a000000000000000000000000000000000000000000000000000000000815260040161213890613a07565b60405180910390fd5b505050506000600460006101000a81548160ff02191690831515021790555050565b60008060056000858152602001908152602001600020905060005b8160080180549050811015612218578373ffffffffffffffffffffffffffffffffffffffff168260080182815481106121ba576121b9612d40565b5b9060005260206000200160009054906101000a900473ffffffffffffffffffffffffffffffffffffffff1673ffffffffffffffffffffffffffffffffffffffff160361220b5760019250505061221f565b808060010191505061217e565b5060009150505b92915050565b60008054906101000a900473ffffffffffffffffffffffffffffffffffffffff1673ffffffffffffffffffffffffffffffffffffffff163373ffffffffffffffffffffffffffffffffffffffff16146122b3576040517f08c379a00000000000000000000000000000000000000000000000000000000081526004016122aa90613a73565b60405180910390fd5b565b3373ffffffffffffffffffffffffffffffffffffffff168173ffffffffffffffffffffffffffffffffffffffff1603612323576040517f08c379a000000000000000000000000000000000000000000000000000000000815260040161231a90613adf565b60405180910390fd5b80600160006101000a81548173ffffffffffffffffffffffffffffffffffffffff021916908373ffffffffffffffffffffffffffffffffffffffff1602179055508073ffffffffffffffffffffffffffffffffffffffff1660008054906101000a900473ffffffffffffffffffffffffffffffffffffffff1673ffffffffffffffffffffffffffffffffffffffff167fed8889f560326eb138920d842192f0eb3dd22b4f139c87a2c57538e05bae127860405160405180910390a350565b6040518060800160405280600073ffffffffffffffffffffffffffffffffffffffff16815260200160008152602001600081526020016000151581525090565b6000819050919050565b61243481612421565b82525050565b600060208201905061244f600083018461242b565b92915050565b6000604051905090565b600080fd5b600080fd5b61247281612421565b811461247d57600080fd5b50565b60008135905061248f81612469565b92915050565b6000602082840312156124ab576124aa61245f565b5b60006124b984828501612480565b91505092915050565b600080fd5b600080fd5b600080fd5b60008083601f8401126124e7576124e66124c2565b5b8235905067ffffffffffffffff811115612504576125036124c7565b5b6020830191508360208202830111156125205761251f6124cc565b5b9250929050565b6000806000604084860312156125405761253f61245f565b5b600061254e86828701612480565b935050602084013567ffffffffffffffff81111561256f5761256e612464565b5b61257b868287016124d1565b92509250509250925092565b600063ffffffff82169050919050565b6125a081612587565b82525050565b60006020820190506125bb6000830184612597565b92915050565b600080fd5b6000601f19601f8301169050919050565b7f4e487b7100000000000000000000000000000000000000000000000000000000600052604160045260246000fd5b61260f826125c6565b810181811067ffffffffffffffff8211171561262e5761262d6125d7565b5b80604052505050565b6000612641612455565b905061264d8282612606565b919050565b600067ffffffffffffffff82111561266d5761266c6125d7565b5b612676826125c6565b9050602081019050919050565b82818337600083830152505050565b60006126a56126a084612652565b612637565b9050828152602081018484840111156126c1576126c06125c1565b5b6126cc848285612683565b509392505050565b600082601f8301126126e9576126e86124c2565b5b81356126f9848260208601612692565b91505092915050565b60008115159050919050565b61271781612702565b811461272257600080fd5b50565b6000813590506127348161270e565b92915050565b600080600080608085870312156127545761275361245f565b5b600085013567ffffffffffffffff81111561277257612771612464565b5b61277e878288016126d4565b945050602061278f87828801612480565b93505060406127a087828801612725565b92505060606127b187828801612480565b91505092959194509250565b6000819050919050565b6127d0816127bd565b82525050565b60006020820190506127eb60008301846127c7565b92915050565b6000602082840312156128075761280661245f565b5b600061281584828501612725565b91505092915050565b600073ffffffffffffffffffffffffffffffffffffffff82169050919050565b60006128498261281e565b9050919050565b6128598161283e565b82525050565b60006020820190506128746000830184612850565b92915050565b6128838161283e565b811461288e57600080fd5b50565b6000813590506128a08161287a565b92915050565b6000602082840312156128bc576128bb61245f565b5b60006128ca84828501612891565b91505092915050565b6000819050919050565b60006128f86128f36128ee8461281e565b6128d3565b61281e565b9050919050565b600061290a826128dd565b9050919050565b600061291c826128ff565b9050919050565b61292c81612911565b82525050565b60006020820190506129476000830184612923565b92915050565b61295681612702565b82525050565b6000606082019050612971600083018661294d565b61297e602083018561294d565b61298b604083018461242b565b949350505050565b600081519050919050565b600082825260208201905092915050565b60005b838110156129cd5780820151818401526020810190506129b2565b60008484015250505050565b60006129e482612993565b6129ee818561299e565b93506129fe8185602086016129af565b612a07816125c6565b840191505092915050565b7f4e487b7100000000000000000000000000000000000000000000000000000000600052602160045260246000fd5b60038110612a5257612a51612a12565b5b50565b6000819050612a6382612a41565b919050565b6000612a7382612a55565b9050919050565b612a8381612a68565b82525050565b600081519050919050565b600082825260208201905092915050565b6000819050602082019050919050565b612abe8161283e565b82525050565b612acd81612421565b82525050565b612adc81612702565b82525050565b608082016000820151612af86000850182612ab5565b506020820151612b0b6020850182612ac4565b506040820151612b1e6040850182612ac4565b506060820151612b316060850182612ad3565b50505050565b6000612b438383612ae2565b60808301905092915050565b6000602082019050919050565b6000612b6782612a89565b612b718185612a94565b9350612b7c83612aa5565b8060005b83811015612bad578151612b948882612b37565b9750612b9f83612b4f565b925050600181019050612b80565b5085935050505092915050565b600061016082019050612bd0600083018e61242b565b8181036020830152612be2818d6129d9565b9050612bf1604083018c612850565b612bfe606083018b61242b565b612c0b608083018a61242b565b612c1860a083018961242b565b612c2560c083018861294d565b612c3260e0830187612a7a565b612c4061010083018661242b565b612c4e610120830185612850565b818103610140830152612c618184612b5c565b90509c9b505050505050505050505050565b600061ffff82169050919050565b612c8a81612c73565b82525050565b6000602082019050612ca56000830184612c81565b92915050565b6000604082019050612cc0600083018561294d565b612ccd602083018461242b565b9392505050565b7f496e76616c69642067616d652049440000000000000000000000000000000000600082015250565b6000612d0a600f8361299e565b9150612d1582612cd4565b602082019050919050565b60006020820190508181036000830152612d3981612cfd565b9050919050565b7f4e487b7100000000000000000000000000000000000000000000000000000000600052603260045260246000fd5b7f49742773206e6f7420796f7572207475726e0000000000000000000000000000600082015250565b6000612da560128361299e565b9150612db082612d6f565b602082019050919050565b60006020820190508181036000830152612dd481612d98565b9050919050565b7f4e487b7100000000000000000000000000000000000000000000000000000000600052601160045260246000fd5b6000612e1582612421565b9150612e2083612421565b9250828201905080821115612e3857612e37612ddb565b5b92915050565b6000604082019050612e536000830185612850565b612e606020830184612850565b9392505050565b6000612e7282612421565b91507fffffffffffffffffffffffffffffffffffffffffffffffffffffffffffffffff8203612ea457612ea3612ddb565b5b600182019050919050565b7f4e487b7100000000000000000000000000000000000000000000000000000000600052602260045260246000fd5b60006002820490506001821680612ef657607f821691505b602082108103612f0957612f08612eaf565b5b50919050565b60008190508160005260206000209050919050565b60006020601f8301049050919050565b600082821b905092915050565b600060088302612f717fffffffffffffffffffffffffffffffffffffffffffffffffffffffffffffffff82612f34565b612f7b8683612f34565b95508019841693508086168417925050509392505050565b6000612fae612fa9612fa484612421565b6128d3565b612421565b9050919050565b6000819050919050565b612fc883612f93565b612fdc612fd482612fb5565b848454612f41565b825550505050565b600090565b612ff1612fe4565b612ffc818484612fbf565b505050565b5b8181101561302057613015600082612fe9565b600181019050613002565b5050565b601f8211156130655761303681612f0f565b61303f84612f24565b8101602085101561304e578190505b61306261305a85612f24565b830182613001565b50505b505050565b600082821c905092915050565b60006130886000198460080261306a565b1980831691505092915050565b60006130a18383613077565b9150826002028217905092915050565b6130ba82612993565b67ffffffffffffffff8111156130d3576130d26125d7565b5b6130dd8254612ede565b6130e8828285613024565b600060209050601f83116001811461311b5760008415613109578287015190505b6131138582613095565b86555061317b565b601f19841661312986612f0f565b60005b828110156131515784890151825560018201915060208501945060208101905061312c565b8683101561316e578489015161316a601f891682613077565b8355505b6001600288020188555050505b505050505050565b61318c816127bd565b82525050565b61319b81612c73565b82525050565b6131aa81612587565b82525050565b600081519050919050565b600082825260208201905092915050565b60006131d7826131b0565b6131e181856131bb565b93506131f18185602086016129af565b6131fa816125c6565b840191505092915050565b600060c08301600083015161321d6000860182613183565b5060208301516132306020860182612ac4565b5060408301516132436040860182613192565b50606083015161325660608601826131a1565b50608083015161326960808601826131a1565b5060a083015184820360a086015261328182826131cc565b9150508091505092915050565b600060208201905081810360008301526132a88184613205565b905092915050565b6000815190506132bf81612469565b92915050565b6000602082840312156132db576132da61245f565b5b60006132e9848285016132b0565b91505092915050565b6000604082019050613307600083018561242b565b6133146020830184612597565b9392505050565b7f4d7573742062652070726f706f736564206f776e657200000000000000000000600082015250565b600061335160168361299e565b915061335c8261331b565b602082019050919050565b6000602082019050818103600083015261338081613344565b9050919050565b600060608201905061339c6000830186612850565b6133a96020830185612850565b6133b66040830184612850565b949350505050565b7f4174206c656173742074776f20706c617965727320617265207265717569726560008201527f6420746f207374617274207468652067616d6500000000000000000000000000602082015250565b600061341a60338361299e565b9150613425826133be565b604082019050919050565b600060208201905081810360008301526134498161340d565b9050919050565b7f5468652067616d65206973206f76657200000000000000000000000000000000600082015250565b600061348660108361299e565b915061349182613450565b602082019050919050565b600060208201905081810360008301526134b581613479565b9050919050565b7f72657175657374206e6f7420666f756e64000000000000000000000000000000600082015250565b60006134f260118361299e565b91506134fd826134bc565b602082019050919050565b60006020820190508181036000830152613521816134e5565b9050919050565b7f596f75206861766520616c7265616479206a6f696e656420746869732067616d60008201527f6500000000000000000000000000000000000000000000000000000000000000602082015250565b600061358460218361299e565b915061358f82613528565b604082019050919050565b600060208201905081810360008301526135b381613577565b9050919050565b7f43616e2774206a6f696e20617420746865206d6f6d656e740000000000000000600082015250565b60006135f060188361299e565b91506135fb826135ba565b602082019050919050565b6000602082019050818103600083015261361f816135e3565b9050919050565b7f496e636f7272656374207374616b6520616d6f756e7400000000000000000000600082015250565b600061365c60168361299e565b915061366782613626565b602082019050919050565b6000602082019050818103600083015261368b8161364f565b9050919050565b7f47616d65206e6f7420696e2070726f6772657373000000000000000000000000600082015250565b60006136c860148361299e565b91506136d382613692565b602082019050919050565b600060208201905081810360008301526136f7816136bb565b9050919050565b7f4e6f20706c617965727320696e207468652067616d6500000000000000000000600082015250565b600061373460168361299e565b915061373f826136fe565b602082019050919050565b6000602082019050818103600083015261376381613727565b9050919050565b7f4e487b7100000000000000000000000000000000000000000000000000000000600052601260045260246000fd5b60006137a482612421565b91506137af83612421565b9250826137bf576137be61376a565b5b828206905092915050565b60006040820190506137df600083018561242b565b6137ec602083018461242b565b9392505050565b6020820160008201516138096000850182612ad3565b50505050565b600060208201905061382460008301846137f3565b92915050565b7f4e6f2072652d656e7472616e6379000000000000000000000000000000000000600082015250565b6000613860600e8361299e565b915061386b8261382a565b602082019050919050565b6000602082019050818103600083015261388f81613853565b9050919050565b7f47616d65206973206e6f7420656e646564207965740000000000000000000000600082015250565b60006138cc60158361299e565b91506138d782613896565b602082019050919050565b600060208201905081810360008301526138fb816138bf565b9050919050565b600061390d82612421565b915061391883612421565b925082820261392681612421565b9150828204841483151761393d5761393c612ddb565b5b5092915050565b600061394f82612421565b915061395a83612421565b92508261396a5761396961376a565b5b828204905092915050565b600081905092915050565b50565b6000613990600083613975565b915061399b82613980565b600082019050919050565b60006139b182613983565b9150819050919050565b7f5472616e73666572206661696c65640000000000000000000000000000000000600082015250565b60006139f1600f8361299e565b91506139fc826139bb565b602082019050919050565b60006020820190508181036000830152613a20816139e4565b9050919050565b7f4f6e6c792063616c6c61626c65206279206f776e657200000000000000000000600082015250565b6000613a5d60168361299e565b9150613a6882613a27565b602082019050919050565b60006020820190508181036000830152613a8c81613a50565b9050919050565b7f43616e6e6f74207472616e7366657220746f2073656c66000000000000000000600082015250565b6000613ac960178361299e565b9150613ad482613a93565b602082019050919050565b60006020820190508181036000830152613af881613abc565b905091905056fea2646970667358221220b2db5743ef41eceb44d5f641e397fdf7759e26ae6eef46954978e674738314aa64736f6c63430008180033",
  "linkReferences": {},
  "deployedLinkReferences": {}
}