{
  "_format": "hh-sol-artifact-1",
  "contractName": "GreedyPig",
  "sourceName": "contracts/GreedyPig.sol",
  "abi": [
    {
      "inputs": [
        {
          "internalType": "bytes32",
          "name": "_keyhash",
          "type": "bytes32"
        },
        {
          "internalType": "uint256",
          "name": "subscriptionId",
          "type": "uint256"
        },
        {
          "internalType": "address",
          "name": "_VRFConsumerBaseV2Plus",
          "type": "address"
        }
      ],
      "stateMutability": "nonpayable",
      "type": "constructor"
    },
    {
      "inputs": [
        {
          "internalType": "address",
          "name": "have",
          "type": "address"
        },
        {
          "internalType": "address",
          "name": "want",
          "type": "address"
        }
      ],
      "name": "OnlyCoordinatorCanFulfill",
      "type": "error"
    },
    {
      "inputs": [
        {
          "internalType": "address",
          "name": "have",
          "type": "address"
        },
        {
          "internalType": "address",
          "name": "owner",
          "type": "address"
        },
        {
          "internalType": "address",
          "name": "coordinator",
          "type": "address"
        }
      ],
      "name": "OnlyOwnerOrCoordinator",
      "type": "error"
    },
    {
      "inputs": [],
      "name": "ZeroAddress",
      "type": "error"
    },
    {
      "anonymous": false,
      "inputs": [
        {
          "indexed": false,
          "internalType": "address",
          "name": "vrfCoordinator",
          "type": "address"
        }
      ],
      "name": "CoordinatorSet",
      "type": "event"
    },
    {
      "anonymous": false,
      "inputs": [
        {
          "indexed": true,
          "internalType": "uint256",
          "name": "gameId",
          "type": "uint256"
        },
        {
          "indexed": true,
          "internalType": "address",
          "name": "creator",
          "type": "address"
        }
      ],
      "name": "GameCreated",
      "type": "event"
    },
    {
      "anonymous": false,
      "inputs": [
        {
          "indexed": true,
          "internalType": "uint256",
          "name": "gameId",
          "type": "uint256"
        },
        {
          "indexed": true,
          "internalType": "address",
          "name": "winner",
          "type": "address"
        }
      ],
      "name": "GameEnded",
      "type": "event"
    },
    {
      "anonymous": false,
      "inputs": [
        {
          "indexed": true,
          "internalType": "address",
          "name": "from",
          "type": "address"
        },
        {
          "indexed": true,
          "internalType": "address",
          "name": "to",
          "type": "address"
        }
      ],
      "name": "OwnershipTransferRequested",
      "type": "event"
    },
    {
      "anonymous": false,
      "inputs": [
        {
          "indexed": true,
          "internalType": "address",
          "name": "from",
          "type": "address"
        },
        {
          "indexed": true,
          "internalType": "address",
          "name": "to",
          "type": "address"
        }
      ],
      "name": "OwnershipTransferred",
      "type": "event"
    },
    {
      "anonymous": false,
      "inputs": [
        {
          "indexed": true,
          "internalType": "uint256",
          "name": "gameId",
          "type": "uint256"
        },
        {
          "indexed": true,
          "internalType": "address",
          "name": "player",
          "type": "address"
        }
      ],
      "name": "PlayerJoined",
      "type": "event"
    },
    {
      "anonymous": false,
      "inputs": [
        {
          "indexed": true,
          "internalType": "uint256",
          "name": "gameId",
          "type": "uint256"
        },
        {
          "indexed": true,
          "internalType": "address",
          "name": "player",
          "type": "address"
        },
        {
          "indexed": false,
          "internalType": "uint256",
          "name": "roll",
          "type": "uint256"
        }
      ],
      "name": "PlayerRoll",
      "type": "event"
    },
    {
      "anonymous": false,
      "inputs": [
        {
          "indexed": false,
          "internalType": "uint256",
          "name": "requestId",
          "type": "uint256"
        },
        {
          "indexed": false,
          "internalType": "uint256[]",
          "name": "randomWords",
          "type": "uint256[]"
        }
      ],
      "name": "RequestFulfilled",
      "type": "event"
    },
    {
      "anonymous": false,
      "inputs": [
        {
          "indexed": false,
          "internalType": "uint256",
          "name": "requestId",
          "type": "uint256"
        },
        {
          "indexed": false,
          "internalType": "uint32",
          "name": "numWords",
          "type": "uint32"
        }
      ],
      "name": "RequestSent",
      "type": "event"
    },
    {
      "inputs": [],
      "name": "acceptOwnership",
      "outputs": [],
      "stateMutability": "nonpayable",
      "type": "function"
    },
    {
      "inputs": [],
      "name": "callbackGasLimit",
      "outputs": [
        {
          "internalType": "uint32",
          "name": "",
          "type": "uint32"
        }
      ],
      "stateMutability": "view",
      "type": "function"
    },
    {
      "inputs": [
        {
          "internalType": "string",
          "name": "_name",
          "type": "string"
        },
        {
          "internalType": "uint256",
          "name": "_targetScore",
          "type": "uint256"
        },
        {
          "internalType": "bool",
          "name": "_bet",
          "type": "bool"
        },
        {
          "internalType": "uint256",
          "name": "_stakemount",
          "type": "uint256"
        }
      ],
      "name": "createGame",
      "outputs": [],
      "stateMutability": "nonpayable",
      "type": "function"
    },
    {
      "inputs": [],
      "name": "gameId",
      "outputs": [
        {
          "internalType": "uint256",
          "name": "",
          "type": "uint256"
        }
      ],
      "stateMutability": "view",
      "type": "function"
    },
    {
      "inputs": [],
      "name": "getBalance",
      "outputs": [
        {
          "internalType": "uint256",
          "name": "",
          "type": "uint256"
        }
      ],
      "stateMutability": "view",
      "type": "function"
    },
    {
      "inputs": [
        {
          "internalType": "uint256",
          "name": "_gameId",
          "type": "uint256"
        }
      ],
      "name": "getGame",
      "outputs": [
        {
          "internalType": "uint256",
          "name": "id",
          "type": "uint256"
        },
        {
          "internalType": "string",
          "name": "name",
          "type": "string"
        },
        {
          "internalType": "address",
          "name": "creator",
          "type": "address"
        },
        {
          "internalType": "uint256",
          "name": "targetScore",
          "type": "uint256"
        },
        {
          "internalType": "uint256",
          "name": "stakemount",
          "type": "uint256"
        },
        {
          "internalType": "uint256",
          "name": "rollOutcome",
          "type": "uint256"
        },
        {
          "internalType": "bool",
          "name": "bet",
          "type": "bool"
        },
        {
          "internalType": "enum GreedyPig.GameStatus",
          "name": "status",
          "type": "uint8"
        },
        {
          "internalType": "uint256",
          "name": "currentPlayerIndex",
          "type": "uint256"
        },
        {
          "internalType": "address",
          "name": "winner",
          "type": "address"
        },
        {
          "components": [
            {
              "internalType": "address",
              "name": "player",
              "type": "address"
            },
            {
              "internalType": "uint256",
              "name": "turnScore",
              "type": "uint256"
            },
            {
              "internalType": "uint256",
              "name": "totalScore",
              "type": "uint256"
            },
            {
              "internalType": "bool",
              "name": "deposited",
              "type": "bool"
            }
          ],
          "internalType": "struct GreedyPig.PlayerInfo[]",
          "name": "players",
          "type": "tuple[]"
        }
      ],
      "stateMutability": "view",
      "type": "function"
    },
    {
      "inputs": [],
      "name": "getGameId",
      "outputs": [
        {
          "internalType": "uint256",
          "name": "",
          "type": "uint256"
        }
      ],
      "stateMutability": "view",
      "type": "function"
    },
    {
      "inputs": [
        {
          "internalType": "uint256",
          "name": "_requestId",
          "type": "uint256"
        }
      ],
      "name": "getRequestStatus",
      "outputs": [
        {
          "internalType": "bool",
          "name": "fulfilled",
          "type": "bool"
        },
        {
          "internalType": "uint256[]",
          "name": "randomWords",
          "type": "uint256[]"
        }
      ],
      "stateMutability": "view",
      "type": "function"
    },
    {
      "inputs": [
        {
          "internalType": "uint256",
          "name": "_gameId",
          "type": "uint256"
        }
      ],
      "name": "joinGame",
      "outputs": [],
      "stateMutability": "payable",
      "type": "function"
    },
    {
      "inputs": [],
      "name": "keyHash",
      "outputs": [
        {
          "internalType": "bytes32",
          "name": "",
          "type": "bytes32"
        }
      ],
      "stateMutability": "view",
      "type": "function"
    },
    {
      "inputs": [],
      "name": "lastRequestId",
      "outputs": [
        {
          "internalType": "uint256",
          "name": "",
          "type": "uint256"
        }
      ],
      "stateMutability": "view",
      "type": "function"
    },
    {
      "inputs": [],
      "name": "numWords",
      "outputs": [
        {
          "internalType": "uint32",
          "name": "",
          "type": "uint32"
        }
      ],
      "stateMutability": "view",
      "type": "function"
    },
    {
      "inputs": [],
      "name": "owner",
      "outputs": [
        {
          "internalType": "address",
          "name": "",
          "type": "address"
        }
      ],
      "stateMutability": "view",
      "type": "function"
    },
    {
      "inputs": [
        {
          "internalType": "uint256",
          "name": "_gameId",
          "type": "uint256"
        }
      ],
      "name": "passTurn",
      "outputs": [],
      "stateMutability": "nonpayable",
      "type": "function"
    },
    {
      "inputs": [
        {
          "internalType": "uint256",
          "name": "requestId",
          "type": "uint256"
        },
        {
          "internalType": "uint256[]",
          "name": "randomWords",
          "type": "uint256[]"
        }
      ],
      "name": "rawFulfillRandomWords",
      "outputs": [],
      "stateMutability": "nonpayable",
      "type": "function"
    },
    {
      "inputs": [],
      "name": "requestConfirmations",
      "outputs": [
        {
          "internalType": "uint16",
          "name": "",
          "type": "uint16"
        }
      ],
      "stateMutability": "view",
      "type": "function"
    },
    {
      "inputs": [
        {
          "internalType": "uint256",
          "name": "",
          "type": "uint256"
        }
      ],
      "name": "requestIds",
      "outputs": [
        {
          "internalType": "uint256",
          "name": "",
          "type": "uint256"
        }
      ],
      "stateMutability": "view",
      "type": "function"
    },
    {
      "inputs": [
        {
          "internalType": "bool",
          "name": "enableNativePayment",
          "type": "bool"
        }
      ],
      "name": "requestRandomWords",
      "outputs": [
        {
          "internalType": "uint256",
          "name": "requestId",
          "type": "uint256"
        }
      ],
      "stateMutability": "nonpayable",
      "type": "function"
    },
    {
      "inputs": [
        {
          "internalType": "uint256",
          "name": "_gameId",
          "type": "uint256"
        }
      ],
      "name": "rollDice",
      "outputs": [],
      "stateMutability": "nonpayable",
      "type": "function"
    },
    {
      "inputs": [
        {
          "internalType": "uint256",
          "name": "",
          "type": "uint256"
        }
      ],
      "name": "s_requests",
      "outputs": [
        {
          "internalType": "bool",
          "name": "fulfilled",
          "type": "bool"
        },
        {
          "internalType": "bool",
          "name": "exists",
          "type": "bool"
        }
      ],
      "stateMutability": "view",
      "type": "function"
    },
    {
      "inputs": [],
      "name": "s_subscriptionId",
      "outputs": [
        {
          "internalType": "uint256",
          "name": "",
          "type": "uint256"
        }
      ],
      "stateMutability": "view",
      "type": "function"
    },
    {
      "inputs": [],
      "name": "s_vrfCoordinator",
      "outputs": [
        {
          "internalType": "contract IVRFCoordinatorV2Plus",
          "name": "",
          "type": "address"
        }
      ],
      "stateMutability": "view",
      "type": "function"
    },
    {
      "inputs": [
        {
          "internalType": "address",
          "name": "_vrfCoordinator",
          "type": "address"
        }
      ],
      "name": "setCoordinator",
      "outputs": [],
      "stateMutability": "nonpayable",
      "type": "function"
    },
    {
      "inputs": [
        {
          "internalType": "address",
          "name": "to",
          "type": "address"
        }
      ],
      "name": "transferOwnership",
      "outputs": [],
      "stateMutability": "nonpayable",
      "type": "function"
    },
    {
      "stateMutability": "payable",
      "type": "receive"
    }
  ],
  "bytecode": "0x6080604052620186a0600d60006101000a81548163ffffffff021916908363ffffffff1602179055506003600d60046101000a81548161ffff021916908361ffff1602179055506001600d60066101000a81548163ffffffff021916908363ffffffff1602179055503480156200007557600080fd5b50604051620044123803806200441283398181016040528101906200009b91906200046a565b80338060008073ffffffffffffffffffffffffffffffffffffffff168273ffffffffffffffffffffffffffffffffffffffff160362000111576040517f08c379a0000000000000000000000000000000000000000000000000000000008152600401620001089062000527565b60405180910390fd5b816000806101000a81548173ffffffffffffffffffffffffffffffffffffffff021916908373ffffffffffffffffffffffffffffffffffffffff160217905550600073ffffffffffffffffffffffffffffffffffffffff168173ffffffffffffffffffffffffffffffffffffffff1614620001985762000197816200025b60201b60201c565b5b505050600073ffffffffffffffffffffffffffffffffffffffff168173ffffffffffffffffffffffffffffffffffffffff160362000202576040517fd92e233d00000000000000000000000000000000000000000000000000000000815260040160405180910390fd5b80600260006101000a81548173ffffffffffffffffffffffffffffffffffffffff021916908373ffffffffffffffffffffffffffffffffffffffff1602179055505082600c8190555081600981905550505050620005bb565b3373ffffffffffffffffffffffffffffffffffffffff168173ffffffffffffffffffffffffffffffffffffffff1603620002cc576040517f08c379a0000000000000000000000000000000000000000000000000000000008152600401620002c39062000599565b60405180910390fd5b80600160006101000a81548173ffffffffffffffffffffffffffffffffffffffff021916908373ffffffffffffffffffffffffffffffffffffffff1602179055508073ffffffffffffffffffffffffffffffffffffffff1660008054906101000a900473ffffffffffffffffffffffffffffffffffffffff1673ffffffffffffffffffffffffffffffffffffffff167fed8889f560326eb138920d842192f0eb3dd22b4f139c87a2c57538e05bae127860405160405180910390a350565b600080fd5b6000819050919050565b620003a4816200038f565b8114620003b057600080fd5b50565b600081519050620003c48162000399565b92915050565b6000819050919050565b620003df81620003ca565b8114620003eb57600080fd5b50565b600081519050620003ff81620003d4565b92915050565b600073ffffffffffffffffffffffffffffffffffffffff82169050919050565b6000620004328262000405565b9050919050565b620004448162000425565b81146200045057600080fd5b50565b600081519050620004648162000439565b92915050565b6000806000606084860312156200048657620004856200038a565b5b60006200049686828701620003b3565b9350506020620004a986828701620003ee565b9250506040620004bc8682870162000453565b9150509250925092565b600082825260208201905092915050565b7f43616e6e6f7420736574206f776e657220746f207a65726f0000000000000000600082015250565b60006200050f601883620004c6565b91506200051c82620004d7565b602082019050919050565b60006020820190508181036000830152620005428162000500565b9050919050565b7f43616e6e6f74207472616e7366657220746f2073656c66000000000000000000600082015250565b600062000581601783620004c6565b91506200058e8262000549565b602082019050919050565b60006020820190508181036000830152620005b48162000572565b9050919050565b613e4780620005cb6000396000f3fe60806040526004361061014f5760003560e01c80638ea98117116100b6578063c0bd83511161006f578063c0bd835114610496578063d7c81b55146104c1578063d8a4676f146104ec578063efaa55a01461052a578063f2fde38b14610546578063fc2a88c31461056f57610156565b80638ea98117146103695780639eccacf614610392578063a168fa89146103bd578063a2f77bcc146103fb578063acfff37714610442578063b0fb162f1461046b57610156565b80637392a771116101085780637392a7711461025757806379ba5097146102945780637ccfd7fc146102ab5780638796ba8c146102d65780638ac00021146103135780638da5cb5b1461033e57610156565b806312065fe01461015b5780631a5375e1146101865780631fe543e3146101af57806324f74697146101d857806351f3e29f1461020357806361728f391461022c57610156565b3661015657005b600080fd5b34801561016757600080fd5b5061017061059a565b60405161017d91906125c5565b60405180910390f35b34801561019257600080fd5b506101ad60048036038101906101a89190612620565b6105a2565b005b3480156101bb57600080fd5b506101d660048036038101906101d191906126b2565b61074a565b005b3480156101e457600080fd5b506101ed610810565b6040516101fa9190612731565b60405180910390f35b34801561020f57600080fd5b5061022a600480360381019061022591906128c5565b610826565b005b34801561023857600080fd5b5061024161099a565b60405161024e9190612961565b60405180910390f35b34801561026357600080fd5b5061027e6004803603810190610279919061297c565b6109a0565b60405161028b91906125c5565b60405180910390f35b3480156102a057600080fd5b506102a9610c2b565b005b3480156102b757600080fd5b506102c0610dc0565b6040516102cd9190612731565b60405180910390f35b3480156102e257600080fd5b506102fd60048036038101906102f89190612620565b610dd6565b60405161030a91906125c5565b60405180910390f35b34801561031f57600080fd5b50610328610dfa565b60405161033591906125c5565b60405180910390f35b34801561034a57600080fd5b50610353610e00565b60405161036091906129ea565b60405180910390f35b34801561037557600080fd5b50610390600480360381019061038b9190612a31565b610e29565b005b34801561039e57600080fd5b506103a761100a565b6040516103b49190612abd565b60405180910390f35b3480156103c957600080fd5b506103e460048036038101906103df9190612620565b611030565b6040516103f2929190612ae7565b60405180910390f35b34801561040757600080fd5b50610422600480360381019061041d9190612620565b61106e565b6040516104399b9a99989796959493929190612d37565b60405180910390f35b34801561044e57600080fd5b5061046960048036038101906104649190612620565b6113a4565b005b34801561047757600080fd5b506104806117bf565b60405161048d9190612e0d565b60405180910390f35b3480156104a257600080fd5b506104ab6117d3565b6040516104b891906125c5565b60405180910390f35b3480156104cd57600080fd5b506104d66117dd565b6040516104e391906125c5565b60405180910390f35b3480156104f857600080fd5b50610513600480360381019061050e9190612620565b6117e3565b604051610521929190612ed7565b60405180910390f35b610544600480360381019061053f9190612620565b61190e565b005b34801561055257600080fd5b5061056d60048036038101906105689190612a31565b611c8e565b005b34801561057b57600080fd5b50610584611ca2565b60405161059191906125c5565b60405180910390f35b600047905090565b806000811180156105b557506003548111155b6105f4576040517f08c379a00000000000000000000000000000000000000000000000000000000081526004016105eb90612f53565b60405180910390fd5b8160006005600083815260200190815260200160002090503373ffffffffffffffffffffffffffffffffffffffff168160080182600a01548154811061063d5761063c612f73565b5b9060005260206000200160009054906101000a900473ffffffffffffffffffffffffffffffffffffffff1673ffffffffffffffffffffffffffffffffffffffff16146106be576040517f08c379a00000000000000000000000000000000000000000000000000000000081526004016106b590612fee565b60405180910390fd5b600060056000868152602001908152602001600020905060008160070160003373ffffffffffffffffffffffffffffffffffffffff1673ffffffffffffffffffffffffffffffffffffffff16815260200190815260200160002090508060010154816002016000828254610732919061303d565b9250508190555061074286611ca8565b505050505050565b600260009054906101000a900473ffffffffffffffffffffffffffffffffffffffff1673ffffffffffffffffffffffffffffffffffffffff163373ffffffffffffffffffffffffffffffffffffffff16146108005733600260009054906101000a900473ffffffffffffffffffffffffffffffffffffffff166040517f1cf993f40000000000000000000000000000000000000000000000000000000081526004016107f7929190613071565b60405180910390fd5b61080b838383611db0565b505050565b600d60009054906101000a900463ffffffff1681565b600360008154809291906108399061309a565b91905055506000600560006003548152602001908152602001600020905060035481600001819055508481600101908161087391906132e4565b50338160020160006101000a81548173ffffffffffffffffffffffffffffffffffffffff021916908373ffffffffffffffffffffffffffffffffffffffff160217905550838160030181905550818160040181905550828160060160006101000a81548160ff021916908315150217905550600660003373ffffffffffffffffffffffffffffffffffffffff1673ffffffffffffffffffffffffffffffffffffffff16815260200190815260200160002060035490806001815401808255809150506001900390600052602060002001600090919091909150553373ffffffffffffffffffffffffffffffffffffffff166003547fc3e0f84839dc888c892a013d10c8f9d6dc05a21a879d0ce468ca558013e9121c60405160405180910390a35050505050565b600c5481565b6000600260009054906101000a900473ffffffffffffffffffffffffffffffffffffffff1673ffffffffffffffffffffffffffffffffffffffff16639b1c385e6040518060c00160405280600c5481526020016009548152602001600d60049054906101000a900461ffff1661ffff168152602001600d60009054906101000a900463ffffffff1663ffffffff168152602001600d60069054906101000a900463ffffffff1663ffffffff168152602001610a6a6040518060200160405280881515815250611ef2565b8152506040518263ffffffff1660e01b8152600401610a8991906134c1565b6020604051808303816000875af1158015610aa8573d6000803e3d6000fd5b505050506040513d601f19601f82011682018060405250810190610acc91906134f8565b90506040518060600160405280600015158152602001600115158152602001600067ffffffffffffffff811115610b0657610b05612762565b5b604051908082528060200260200182016040528015610b345781602001602082028036833780820191505090505b508152506008600083815260200190815260200160002060008201518160000160006101000a81548160ff02191690831515021790555060208201518160000160016101000a81548160ff0219169083151502179055506040820151816001019080519060200190610ba7929190612502565b50905050600a81908060018154018082558091505060019003906000526020600020016000909190919091505580600b819055507fcc58b13ad3eab50626c6a6300b1d139cd6ebb1688a7cced9461c2f7e762665ee81600d60069054906101000a900463ffffffff16604051610c1e929190613525565b60405180910390a1919050565b600160009054906101000a900473ffffffffffffffffffffffffffffffffffffffff1673ffffffffffffffffffffffffffffffffffffffff163373ffffffffffffffffffffffffffffffffffffffff1614610cbb576040517f08c379a0000000000000000000000000000000000000000000000000000000008152600401610cb29061359a565b60405180910390fd5b60008060009054906101000a900473ffffffffffffffffffffffffffffffffffffffff169050336000806101000a81548173ffffffffffffffffffffffffffffffffffffffff021916908373ffffffffffffffffffffffffffffffffffffffff1602179055506000600160006101000a81548173ffffffffffffffffffffffffffffffffffffffff021916908373ffffffffffffffffffffffffffffffffffffffff1602179055503373ffffffffffffffffffffffffffffffffffffffff168173ffffffffffffffffffffffffffffffffffffffff167f8be0079c531659141344cd1fd0a4f28419497f9722a3daafe3b4186f6b6457e060405160405180910390a350565b600d60069054906101000a900463ffffffff1681565b600a8181548110610de657600080fd5b906000526020600020016000915090505481565b60095481565b60008060009054906101000a900473ffffffffffffffffffffffffffffffffffffffff16905090565b610e31610e00565b73ffffffffffffffffffffffffffffffffffffffff163373ffffffffffffffffffffffffffffffffffffffff1614158015610eba5750600260009054906101000a900473ffffffffffffffffffffffffffffffffffffffff1673ffffffffffffffffffffffffffffffffffffffff163373ffffffffffffffffffffffffffffffffffffffff1614155b15610f295733610ec8610e00565b600260009054906101000a900473ffffffffffffffffffffffffffffffffffffffff166040517f061db9c1000000000000000000000000000000000000000000000000000000008152600401610f20939291906135ba565b60405180910390fd5b600073ffffffffffffffffffffffffffffffffffffffff168173ffffffffffffffffffffffffffffffffffffffff1603610f8f576040517fd92e233d00000000000000000000000000000000000000000000000000000000815260040160405180910390fd5b80600260006101000a81548173ffffffffffffffffffffffffffffffffffffffff021916908373ffffffffffffffffffffffffffffffffffffffff1602179055507fd1a6a14209a385a964d036e404cb5cfb71f4000cdb03c9366292430787261be681604051610fff91906129ea565b60405180910390a150565b600260009054906101000a900473ffffffffffffffffffffffffffffffffffffffff1681565b60086020528060005260406000206000915090508060000160009054906101000a900460ff16908060000160019054906101000a900460ff16905082565b6000606060008060008060008060008060608b60008111801561109357506003548111155b6110d2576040517f08c379a00000000000000000000000000000000000000000000000000000000081526004016110c990612f53565b60405180910390fd5b6000600560008f815260200190815260200160002090506000816008018054905067ffffffffffffffff81111561110c5761110b612762565b5b60405190808252806020026020018201604052801561114557816020015b61113261254f565b81526020019060019003908161112a5790505b50905060005b826008018054905081101561126357600083600801828154811061117257611171612f73565b5b9060005260206000200160009054906101000a900473ffffffffffffffffffffffffffffffffffffffff16905060008460070160008373ffffffffffffffffffffffffffffffffffffffff1673ffffffffffffffffffffffffffffffffffffffff168152602001908152602001600020905060405180608001604052808373ffffffffffffffffffffffffffffffffffffffff16815260200182600101548152602001826002015481526020018260030160009054906101000a900460ff16151581525084848151811061124957611248612f73565b5b60200260200101819052505050808060010191505061114b565b508160000154826001018360020160009054906101000a900473ffffffffffffffffffffffffffffffffffffffff168460030154856004015486600501548760060160009054906101000a900460ff168860090160009054906101000a900460ff1689600a01548a600b0160009054906101000a900473ffffffffffffffffffffffffffffffffffffffff168a8980546112fc90613111565b80601f016020809104026020016040519081016040528092919081815260200182805461132890613111565b80156113755780601f1061134a57610100808354040283529160200191611375565b820191906000526020600020905b81548152906001019060200180831161135857829003601f168201915b505050505099509d509d509d509d509d509d509d509d509d509d509d5050505091939597999b90929496989a50565b806000811180156113b757506003548111155b6113f6576040517f08c379a00000000000000000000000000000000000000000000000000000000081526004016113ed90612f53565b60405180910390fd5b8160006005600083815260200190815260200160002090503373ffffffffffffffffffffffffffffffffffffffff168160080182600a01548154811061143f5761143e612f73565b5b9060005260206000200160009054906101000a900473ffffffffffffffffffffffffffffffffffffffff1673ffffffffffffffffffffffffffffffffffffffff16146114c0576040517f08c379a00000000000000000000000000000000000000000000000000000000081526004016114b790612fee565b60405180910390fd5b6000600560008681526020019081526020016000209050600281600801805490501015611522576040517f08c379a000000000000000000000000000000000000000000000000000000000815260040161151990613663565b60405180910390fd5b61152b81611f8a565b1561156b576040517f08c379a0000000000000000000000000000000000000000000000000000000008152600401611562906136cf565b60405180910390fd5b6000600281111561157f5761157e612b8f565b5b8160090160009054906101000a900460ff1660028111156115a3576115a2612b8f565b5b036115d65760018160090160006101000a81548160ff021916908360028111156115d0576115cf612b8f565b5b02179055505b60006115e0611fcb565b90508082600501819055503373ffffffffffffffffffffffffffffffffffffffff16867f84c283c54b9dd7c119a547366366504244b6d5c87460f44ffe83463b000af1e78360405161163291906125c5565b60405180910390a360008260070160003373ffffffffffffffffffffffffffffffffffffffff1673ffffffffffffffffffffffffffffffffffffffff16815260200190815260200160002090506001820361169f576000816001018190555061169a87611ca8565b6117b6565b818160010160008282546116b3919061303d565b925050819055508260030154816002015482600101546116d3919061303d565b106117b55760028360090160006101000a81548160ff02191690836002811115611700576116ff612b8f565b5b0217905550806001015481600201600082825461171d919061303d565b925050819055503383600b0160006101000a81548173ffffffffffffffffffffffffffffffffffffffff021916908373ffffffffffffffffffffffffffffffffffffffff16021790555061177087612061565b3373ffffffffffffffffffffffffffffffffffffffff16877f3d5fcd8fa3235aeb3897f25c8ea49989174981afcb01b9d03189d1056a16775b60405160405180910390a35b5b50505050505050565b600d60049054906101000a900461ffff1681565b6000600354905090565b60035481565b600060606008600084815260200190815260200160002060000160019054906101000a900460ff1661184a576040517f08c379a00000000000000000000000000000000000000000000000000000000081526004016118419061373b565b60405180910390fd5b6000600860008581526020019081526020016000206040518060600160405290816000820160009054906101000a900460ff161515151581526020016000820160019054906101000a900460ff16151515158152602001600182018054806020026020016040519081016040528092919081815260200182805480156118ef57602002820191906000526020600020905b8154815260200190600101908083116118db575b5050505050815250509050806000015181604001519250925050915091565b8060008111801561192157506003548111155b611960576040517f08c379a000000000000000000000000000000000000000000000000000000000815260040161195790612f53565b60405180910390fd5b60006005600084815260200190815260200160002090506119818333612284565b156119c1576040517f08c379a00000000000000000000000000000000000000000000000000000000081526004016119b8906137cd565b60405180910390fd5b600060028111156119d5576119d4612b8f565b5b8160090160009054906101000a900460ff1660028111156119f9576119f8612b8f565b5b14611a39576040517f08c379a0000000000000000000000000000000000000000000000000000000008152600401611a3090613839565b60405180910390fd5b80600401543414611a7f576040517f08c379a0000000000000000000000000000000000000000000000000000000008152600401611a76906138a5565b60405180910390fd5b60405180608001604052803373ffffffffffffffffffffffffffffffffffffffff1681526020016000815260200160008152602001600115158152508160070160003373ffffffffffffffffffffffffffffffffffffffff1673ffffffffffffffffffffffffffffffffffffffff16815260200190815260200160002060008201518160000160006101000a81548173ffffffffffffffffffffffffffffffffffffffff021916908373ffffffffffffffffffffffffffffffffffffffff160217905550602082015181600101556040820151816002015560608201518160030160006101000a81548160ff02191690831515021790555090505080600801339080600181540180825580915050600190039060005260206000200160009091909190916101000a81548173ffffffffffffffffffffffffffffffffffffffff021916908373ffffffffffffffffffffffffffffffffffffffff160217905550600760003373ffffffffffffffffffffffffffffffffffffffff1673ffffffffffffffffffffffffffffffffffffffff1681526020019081526020016000208390806001815401808255809150506001900390600052602060002001600090919091909150553373ffffffffffffffffffffffffffffffffffffffff16837f87969bc7faf902221a147b95ceba76e011c5efb0339a0a8ee7a2bb82d9cfbbd660405160405180910390a3505050565b611c96612346565b611c9f816123d6565b50565b600b5481565b600060056000838152602001908152602001600020905060016002811115611cd357611cd2612b8f565b5b8160090160009054906101000a900460ff166002811115611cf757611cf6612b8f565b5b14611d37576040517f08c379a0000000000000000000000000000000000000000000000000000000008152600401611d2e90613911565b60405180910390fd5b6000816008018054905011611d81576040517f08c379a0000000000000000000000000000000000000000000000000000000008152600401611d789061397d565b60405180910390fd5b8060080180549050600182600a0154611d9a919061303d565b611da491906139cc565b81600a01819055505050565b6008600084815260200190815260200160002060000160019054906101000a900460ff16611e13576040517f08c379a0000000000000000000000000000000000000000000000000000000008152600401611e0a9061373b565b60405180910390fd5b60016008600085815260200190815260200160002060000160006101000a81548160ff02191690831515021790555060006001600684846000818110611e5c57611e5b612f73565b5b90506020020135611e6d91906139cc565b611e77919061303d565b90508060086000868152602001908152602001600020600101600081548110611ea357611ea2612f73565b5b90600052602060002001819055507ffe2e2d779dba245964d4e3ef9b994be63856fd568bf7d3ca9e224755cb1bd54d848484604051611ee493929190613a67565b60405180910390a150505050565b60607f92fd13387c7fe7befbc38d303d6468778fb9731bc4583f17d92989c6fcfdeaaa82604051602401611f269190613ab5565b604051602081830303815290604052907bffffffffffffffffffffffffffffffffffffffffffffffffffffffff19166020820180517bffffffffffffffffffffffffffffffffffffffffffffffffffffffff83818316178352505050509050919050565b6000600280811115611f9f57611f9e612b8f565b5b8260090160009054906101000a900460ff166002811115611fc357611fc2612b8f565b5b149050919050565b600080611fd860006109a0565b9050600080611fe6836117e3565b91509150600081511161202e576040517f08c379a000000000000000000000000000000000000000000000000000000000815260040161202590613b1c565b60405180910390fd5b811561205a578060008151811061204857612047612f73565b5b6020026020010151935050505061205e565b5050505b90565b600460009054906101000a900460ff16156120b1576040517f08c379a00000000000000000000000000000000000000000000000000000000081526004016120a890613b88565b60405180910390fd5b6001600460006101000a81548160ff02191690831515021790555060006005600083815260200190815260200160002090506002808111156120f6576120f5612b8f565b5b8160090160009054906101000a900460ff16600281111561211a57612119612b8f565b5b1461215a576040517f08c379a000000000000000000000000000000000000000000000000000000000815260040161215190613bf4565b60405180910390fd5b600081600b0160009054906101000a900473ffffffffffffffffffffffffffffffffffffffff16905060006064605a846008018054905085600401546121a09190613c14565b6121aa9190613c14565b6121b49190613c56565b905060008273ffffffffffffffffffffffffffffffffffffffff16826040516121dc90613cb8565b60006040518083038185875af1925050503d8060008114612219576040519150601f19603f3d011682016040523d82523d6000602084013e61221e565b606091505b5050905080612262576040517f08c379a000000000000000000000000000000000000000000000000000000000815260040161225990613d19565b60405180910390fd5b505050506000600460006101000a81548160ff02191690831515021790555050565b60008060056000858152602001908152602001600020905060005b8160080180549050811015612339578373ffffffffffffffffffffffffffffffffffffffff168260080182815481106122db576122da612f73565b5b9060005260206000200160009054906101000a900473ffffffffffffffffffffffffffffffffffffffff1673ffffffffffffffffffffffffffffffffffffffff160361232c57600192505050612340565b808060010191505061229f565b5060009150505b92915050565b60008054906101000a900473ffffffffffffffffffffffffffffffffffffffff1673ffffffffffffffffffffffffffffffffffffffff163373ffffffffffffffffffffffffffffffffffffffff16146123d4576040517f08c379a00000000000000000000000000000000000000000000000000000000081526004016123cb90613d85565b60405180910390fd5b565b3373ffffffffffffffffffffffffffffffffffffffff168173ffffffffffffffffffffffffffffffffffffffff1603612444576040517f08c379a000000000000000000000000000000000000000000000000000000000815260040161243b90613df1565b60405180910390fd5b80600160006101000a81548173ffffffffffffffffffffffffffffffffffffffff021916908373ffffffffffffffffffffffffffffffffffffffff1602179055508073ffffffffffffffffffffffffffffffffffffffff1660008054906101000a900473ffffffffffffffffffffffffffffffffffffffff1673ffffffffffffffffffffffffffffffffffffffff167fed8889f560326eb138920d842192f0eb3dd22b4f139c87a2c57538e05bae127860405160405180910390a350565b82805482825590600052602060002090810192821561253e579160200282015b8281111561253d578251825591602001919060010190612522565b5b50905061254b919061258f565b5090565b6040518060800160405280600073ffffffffffffffffffffffffffffffffffffffff16815260200160008152602001600081526020016000151581525090565b5b808211156125a8576000816000905550600101612590565b5090565b6000819050919050565b6125bf816125ac565b82525050565b60006020820190506125da60008301846125b6565b92915050565b6000604051905090565b600080fd5b600080fd5b6125fd816125ac565b811461260857600080fd5b50565b60008135905061261a816125f4565b92915050565b600060208284031215612636576126356125ea565b5b60006126448482850161260b565b91505092915050565b600080fd5b600080fd5b600080fd5b60008083601f8401126126725761267161264d565b5b8235905067ffffffffffffffff81111561268f5761268e612652565b5b6020830191508360208202830111156126ab576126aa612657565b5b9250929050565b6000806000604084860312156126cb576126ca6125ea565b5b60006126d98682870161260b565b935050602084013567ffffffffffffffff8111156126fa576126f96125ef565b5b6127068682870161265c565b92509250509250925092565b600063ffffffff82169050919050565b61272b81612712565b82525050565b60006020820190506127466000830184612722565b92915050565b600080fd5b6000601f19601f8301169050919050565b7f4e487b7100000000000000000000000000000000000000000000000000000000600052604160045260246000fd5b61279a82612751565b810181811067ffffffffffffffff821117156127b9576127b8612762565b5b80604052505050565b60006127cc6125e0565b90506127d88282612791565b919050565b600067ffffffffffffffff8211156127f8576127f7612762565b5b61280182612751565b9050602081019050919050565b82818337600083830152505050565b600061283061282b846127dd565b6127c2565b90508281526020810184848401111561284c5761284b61274c565b5b61285784828561280e565b509392505050565b600082601f8301126128745761287361264d565b5b813561288484826020860161281d565b91505092915050565b60008115159050919050565b6128a28161288d565b81146128ad57600080fd5b50565b6000813590506128bf81612899565b92915050565b600080600080608085870312156128df576128de6125ea565b5b600085013567ffffffffffffffff8111156128fd576128fc6125ef565b5b6129098782880161285f565b945050602061291a8782880161260b565b935050604061292b878288016128b0565b925050606061293c8782880161260b565b91505092959194509250565b6000819050919050565b61295b81612948565b82525050565b60006020820190506129766000830184612952565b92915050565b600060208284031215612992576129916125ea565b5b60006129a0848285016128b0565b91505092915050565b600073ffffffffffffffffffffffffffffffffffffffff82169050919050565b60006129d4826129a9565b9050919050565b6129e4816129c9565b82525050565b60006020820190506129ff60008301846129db565b92915050565b612a0e816129c9565b8114612a1957600080fd5b50565b600081359050612a2b81612a05565b92915050565b600060208284031215612a4757612a466125ea565b5b6000612a5584828501612a1c565b91505092915050565b6000819050919050565b6000612a83612a7e612a79846129a9565b612a5e565b6129a9565b9050919050565b6000612a9582612a68565b9050919050565b6000612aa782612a8a565b9050919050565b612ab781612a9c565b82525050565b6000602082019050612ad26000830184612aae565b92915050565b612ae18161288d565b82525050565b6000604082019050612afc6000830185612ad8565b612b096020830184612ad8565b9392505050565b600081519050919050565b600082825260208201905092915050565b60005b83811015612b4a578082015181840152602081019050612b2f565b60008484015250505050565b6000612b6182612b10565b612b6b8185612b1b565b9350612b7b818560208601612b2c565b612b8481612751565b840191505092915050565b7f4e487b7100000000000000000000000000000000000000000000000000000000600052602160045260246000fd5b60038110612bcf57612bce612b8f565b5b50565b6000819050612be082612bbe565b919050565b6000612bf082612bd2565b9050919050565b612c0081612be5565b82525050565b600081519050919050565b600082825260208201905092915050565b6000819050602082019050919050565b612c3b816129c9565b82525050565b612c4a816125ac565b82525050565b612c598161288d565b82525050565b608082016000820151612c756000850182612c32565b506020820151612c886020850182612c41565b506040820151612c9b6040850182612c41565b506060820151612cae6060850182612c50565b50505050565b6000612cc08383612c5f565b60808301905092915050565b6000602082019050919050565b6000612ce482612c06565b612cee8185612c11565b9350612cf983612c22565b8060005b83811015612d2a578151612d118882612cb4565b9750612d1c83612ccc565b925050600181019050612cfd565b5085935050505092915050565b600061016082019050612d4d600083018e6125b6565b8181036020830152612d5f818d612b56565b9050612d6e604083018c6129db565b612d7b606083018b6125b6565b612d88608083018a6125b6565b612d9560a08301896125b6565b612da260c0830188612ad8565b612daf60e0830187612bf7565b612dbd6101008301866125b6565b612dcb6101208301856129db565b818103610140830152612dde8184612cd9565b90509c9b505050505050505050505050565b600061ffff82169050919050565b612e0781612df0565b82525050565b6000602082019050612e226000830184612dfe565b92915050565b600081519050919050565b600082825260208201905092915050565b6000819050602082019050919050565b6000612e608383612c41565b60208301905092915050565b6000602082019050919050565b6000612e8482612e28565b612e8e8185612e33565b9350612e9983612e44565b8060005b83811015612eca578151612eb18882612e54565b9750612ebc83612e6c565b925050600181019050612e9d565b5085935050505092915050565b6000604082019050612eec6000830185612ad8565b8181036020830152612efe8184612e79565b90509392505050565b7f496e76616c69642067616d652049440000000000000000000000000000000000600082015250565b6000612f3d600f83612b1b565b9150612f4882612f07565b602082019050919050565b60006020820190508181036000830152612f6c81612f30565b9050919050565b7f4e487b7100000000000000000000000000000000000000000000000000000000600052603260045260246000fd5b7f49742773206e6f7420796f7572207475726e0000000000000000000000000000600082015250565b6000612fd8601283612b1b565b9150612fe382612fa2565b602082019050919050565b6000602082019050818103600083015261300781612fcb565b9050919050565b7f4e487b7100000000000000000000000000000000000000000000000000000000600052601160045260246000fd5b6000613048826125ac565b9150613053836125ac565b925082820190508082111561306b5761306a61300e565b5b92915050565b600060408201905061308660008301856129db565b61309360208301846129db565b9392505050565b60006130a5826125ac565b91507fffffffffffffffffffffffffffffffffffffffffffffffffffffffffffffffff82036130d7576130d661300e565b5b600182019050919050565b7f4e487b7100000000000000000000000000000000000000000000000000000000600052602260045260246000fd5b6000600282049050600182168061312957607f821691505b60208210810361313c5761313b6130e2565b5b50919050565b60008190508160005260206000209050919050565b60006020601f8301049050919050565b600082821b905092915050565b6000600883026131a47fffffffffffffffffffffffffffffffffffffffffffffffffffffffffffffffff82613167565b6131ae8683613167565b95508019841693508086168417925050509392505050565b60006131e16131dc6131d7846125ac565b612a5e565b6125ac565b9050919050565b6000819050919050565b6131fb836131c6565b61320f613207826131e8565b848454613174565b825550505050565b600090565b613224613217565b61322f8184846131f2565b505050565b5b818110156132535761324860008261321c565b600181019050613235565b5050565b601f8211156132985761326981613142565b61327284613157565b81016020851015613281578190505b61329561328d85613157565b830182613234565b50505b505050565b600082821c905092915050565b60006132bb6000198460080261329d565b1980831691505092915050565b60006132d483836132aa565b9150826002028217905092915050565b6132ed82612b10565b67ffffffffffffffff81111561330657613305612762565b5b6133108254613111565b61331b828285613257565b600060209050601f83116001811461334e576000841561333c578287015190505b61334685826132c8565b8655506133ae565b601f19841661335c86613142565b60005b828110156133845784890151825560018201915060208501945060208101905061335f565b868310156133a1578489015161339d601f8916826132aa565b8355505b6001600288020188555050505b505050505050565b6133bf81612948565b82525050565b6133ce81612df0565b82525050565b6133dd81612712565b82525050565b600081519050919050565b600082825260208201905092915050565b600061340a826133e3565b61341481856133ee565b9350613424818560208601612b2c565b61342d81612751565b840191505092915050565b600060c08301600083015161345060008601826133b6565b5060208301516134636020860182612c41565b50604083015161347660408601826133c5565b50606083015161348960608601826133d4565b50608083015161349c60808601826133d4565b5060a083015184820360a08601526134b482826133ff565b9150508091505092915050565b600060208201905081810360008301526134db8184613438565b905092915050565b6000815190506134f2816125f4565b92915050565b60006020828403121561350e5761350d6125ea565b5b600061351c848285016134e3565b91505092915050565b600060408201905061353a60008301856125b6565b6135476020830184612722565b9392505050565b7f4d7573742062652070726f706f736564206f776e657200000000000000000000600082015250565b6000613584601683612b1b565b915061358f8261354e565b602082019050919050565b600060208201905081810360008301526135b381613577565b9050919050565b60006060820190506135cf60008301866129db565b6135dc60208301856129db565b6135e960408301846129db565b949350505050565b7f4174206c656173742074776f20706c617965727320617265207265717569726560008201527f6420746f207374617274207468652067616d6500000000000000000000000000602082015250565b600061364d603383612b1b565b9150613658826135f1565b604082019050919050565b6000602082019050818103600083015261367c81613640565b9050919050565b7f5468652067616d65206973206f76657200000000000000000000000000000000600082015250565b60006136b9601083612b1b565b91506136c482613683565b602082019050919050565b600060208201905081810360008301526136e8816136ac565b9050919050565b7f72657175657374206e6f7420666f756e64000000000000000000000000000000600082015250565b6000613725601183612b1b565b9150613730826136ef565b602082019050919050565b6000602082019050818103600083015261375481613718565b9050919050565b7f596f75206861766520616c7265616479206a6f696e656420746869732067616d60008201527f6500000000000000000000000000000000000000000000000000000000000000602082015250565b60006137b7602183612b1b565b91506137c28261375b565b604082019050919050565b600060208201905081810360008301526137e6816137aa565b9050919050565b7f43616e2774206a6f696e20617420746865206d6f6d656e740000000000000000600082015250565b6000613823601883612b1b565b915061382e826137ed565b602082019050919050565b6000602082019050818103600083015261385281613816565b9050919050565b7f496e636f7272656374207374616b6520616d6f756e7400000000000000000000600082015250565b600061388f601683612b1b565b915061389a82613859565b602082019050919050565b600060208201905081810360008301526138be81613882565b9050919050565b7f47616d65206e6f7420696e2070726f6772657373000000000000000000000000600082015250565b60006138fb601483612b1b565b9150613906826138c5565b602082019050919050565b6000602082019050818103600083015261392a816138ee565b9050919050565b7f4e6f20706c617965727320696e207468652067616d6500000000000000000000600082015250565b6000613967601683612b1b565b915061397282613931565b602082019050919050565b600060208201905081810360008301526139968161395a565b9050919050565b7f4e487b7100000000000000000000000000000000000000000000000000000000600052601260045260246000fd5b60006139d7826125ac565b91506139e2836125ac565b9250826139f2576139f161399d565b5b828206905092915050565b600080fd5b82818337505050565b6000613a178385612e33565b93507f07ffffffffffffffffffffffffffffffffffffffffffffffffffffffffffffff831115613a4a57613a496139fd565b5b602083029250613a5b838584613a02565b82840190509392505050565b6000604082019050613a7c60008301866125b6565b8181036020830152613a8f818486613a0b565b9050949350505050565b602082016000820151613aaf6000850182612c50565b50505050565b6000602082019050613aca6000830184613a99565b92915050565b7f6e6f2072616e646f6d20776f72647320617661696c61626c6500000000000000600082015250565b6000613b06601983612b1b565b9150613b1182613ad0565b602082019050919050565b60006020820190508181036000830152613b3581613af9565b9050919050565b7f4e6f2072652d656e7472616e6379000000000000000000000000000000000000600082015250565b6000613b72600e83612b1b565b9150613b7d82613b3c565b602082019050919050565b60006020820190508181036000830152613ba181613b65565b9050919050565b7f47616d65206973206e6f7420656e646564207965740000000000000000000000600082015250565b6000613bde601583612b1b565b9150613be982613ba8565b602082019050919050565b60006020820190508181036000830152613c0d81613bd1565b9050919050565b6000613c1f826125ac565b9150613c2a836125ac565b9250828202613c38816125ac565b91508282048414831517613c4f57613c4e61300e565b5b5092915050565b6000613c61826125ac565b9150613c6c836125ac565b925082613c7c57613c7b61399d565b5b828204905092915050565b600081905092915050565b50565b6000613ca2600083613c87565b9150613cad82613c92565b600082019050919050565b6000613cc382613c95565b9150819050919050565b7f5472616e73666572206661696c65640000000000000000000000000000000000600082015250565b6000613d03600f83612b1b565b9150613d0e82613ccd565b602082019050919050565b60006020820190508181036000830152613d3281613cf6565b9050919050565b7f4f6e6c792063616c6c61626c65206279206f776e657200000000000000000000600082015250565b6000613d6f601683612b1b565b9150613d7a82613d39565b602082019050919050565b60006020820190508181036000830152613d9e81613d62565b9050919050565b7f43616e6e6f74207472616e7366657220746f2073656c66000000000000000000600082015250565b6000613ddb601783612b1b565b9150613de682613da5565b602082019050919050565b60006020820190508181036000830152613e0a81613dce565b905091905056fea264697066735822122096ebb6b70314c298628586df60cc39bee19c799c89cfb87c94fb94f50732b66264736f6c63430008180033",
  "linkReferences": {},
  "deployedLinkReferences": {}
}