{
  "_format": "hh-sol-artifact-1",
  "contractName": "GreedyPig",
  "sourceName": "contracts/GreedyPig.sol",
  "abi": [
    {
      "inputs": [
        {
          "internalType": "bytes32",
          "name": "_keyhash",
          "type": "bytes32"
        },
        {
          "internalType": "uint256",
          "name": "subscriptionId",
          "type": "uint256"
        },
        {
          "internalType": "address",
          "name": "_VRFConsumerBaseV2Plus",
          "type": "address"
        }
      ],
      "stateMutability": "nonpayable",
      "type": "constructor"
    },
    {
      "inputs": [
        {
          "internalType": "address",
          "name": "have",
          "type": "address"
        },
        {
          "internalType": "address",
          "name": "want",
          "type": "address"
        }
      ],
      "name": "OnlyCoordinatorCanFulfill",
      "type": "error"
    },
    {
      "inputs": [
        {
          "internalType": "address",
          "name": "have",
          "type": "address"
        },
        {
          "internalType": "address",
          "name": "owner",
          "type": "address"
        },
        {
          "internalType": "address",
          "name": "coordinator",
          "type": "address"
        }
      ],
      "name": "OnlyOwnerOrCoordinator",
      "type": "error"
    },
    {
      "inputs": [],
      "name": "ZeroAddress",
      "type": "error"
    },
    {
      "anonymous": false,
      "inputs": [
        {
          "indexed": false,
          "internalType": "address",
          "name": "vrfCoordinator",
          "type": "address"
        }
      ],
      "name": "CoordinatorSet",
      "type": "event"
    },
    {
      "anonymous": false,
      "inputs": [
        {
          "indexed": true,
          "internalType": "uint256",
          "name": "gameId",
          "type": "uint256"
        },
        {
          "indexed": true,
          "internalType": "address",
          "name": "creator",
          "type": "address"
        }
      ],
      "name": "GameCreated",
      "type": "event"
    },
    {
      "anonymous": false,
      "inputs": [
        {
          "indexed": true,
          "internalType": "uint256",
          "name": "gameId",
          "type": "uint256"
        },
        {
          "indexed": true,
          "internalType": "address",
          "name": "winner",
          "type": "address"
        }
      ],
      "name": "GameEnded",
      "type": "event"
    },
    {
      "anonymous": false,
      "inputs": [
        {
          "indexed": true,
          "internalType": "address",
          "name": "from",
          "type": "address"
        },
        {
          "indexed": true,
          "internalType": "address",
          "name": "to",
          "type": "address"
        }
      ],
      "name": "OwnershipTransferRequested",
      "type": "event"
    },
    {
      "anonymous": false,
      "inputs": [
        {
          "indexed": true,
          "internalType": "address",
          "name": "from",
          "type": "address"
        },
        {
          "indexed": true,
          "internalType": "address",
          "name": "to",
          "type": "address"
        }
      ],
      "name": "OwnershipTransferred",
      "type": "event"
    },
    {
      "anonymous": false,
      "inputs": [
        {
          "indexed": true,
          "internalType": "uint256",
          "name": "gameId",
          "type": "uint256"
        },
        {
          "indexed": true,
          "internalType": "address",
          "name": "player",
          "type": "address"
        }
      ],
      "name": "PlayerJoined",
      "type": "event"
    },
    {
      "anonymous": false,
      "inputs": [
        {
          "indexed": true,
          "internalType": "uint256",
          "name": "gameId",
          "type": "uint256"
        },
        {
          "indexed": true,
          "internalType": "address",
          "name": "player",
          "type": "address"
        },
        {
          "indexed": false,
          "internalType": "uint256",
          "name": "roll",
          "type": "uint256"
        }
      ],
      "name": "PlayerRoll",
      "type": "event"
    },
    {
      "anonymous": false,
      "inputs": [
        {
          "indexed": false,
          "internalType": "uint256",
          "name": "requestId",
          "type": "uint256"
        },
        {
          "indexed": false,
          "internalType": "uint256[]",
          "name": "randomWords",
          "type": "uint256[]"
        }
      ],
      "name": "RequestFulfilled",
      "type": "event"
    },
    {
      "anonymous": false,
      "inputs": [
        {
          "indexed": false,
          "internalType": "uint256",
          "name": "requestId",
          "type": "uint256"
        },
        {
          "indexed": false,
          "internalType": "uint32",
          "name": "numWords",
          "type": "uint32"
        }
      ],
      "name": "RequestSent",
      "type": "event"
    },
    {
      "inputs": [],
      "name": "acceptOwnership",
      "outputs": [],
      "stateMutability": "nonpayable",
      "type": "function"
    },
    {
      "inputs": [],
      "name": "callbackGasLimit",
      "outputs": [
        {
          "internalType": "uint32",
          "name": "",
          "type": "uint32"
        }
      ],
      "stateMutability": "view",
      "type": "function"
    },
    {
      "inputs": [
        {
          "internalType": "string",
          "name": "_name",
          "type": "string"
        },
        {
          "internalType": "uint256",
          "name": "_targetScore",
          "type": "uint256"
        },
        {
          "internalType": "uint256",
          "name": "_stakemount",
          "type": "uint256"
        }
      ],
      "name": "createGame",
      "outputs": [],
      "stateMutability": "nonpayable",
      "type": "function"
    },
    {
      "inputs": [],
      "name": "gameId",
      "outputs": [
        {
          "internalType": "uint256",
          "name": "",
          "type": "uint256"
        }
      ],
      "stateMutability": "view",
      "type": "function"
    },
    {
      "inputs": [],
      "name": "getBalance",
      "outputs": [
        {
          "internalType": "uint256",
          "name": "",
          "type": "uint256"
        }
      ],
      "stateMutability": "view",
      "type": "function"
    },
    {
      "inputs": [
        {
          "internalType": "uint256",
          "name": "_gameId",
          "type": "uint256"
        }
      ],
      "name": "getGame",
      "outputs": [
        {
          "internalType": "uint256",
          "name": "id",
          "type": "uint256"
        },
        {
          "internalType": "string",
          "name": "name",
          "type": "string"
        },
        {
          "internalType": "address",
          "name": "creator",
          "type": "address"
        },
        {
          "internalType": "uint256",
          "name": "targetScore",
          "type": "uint256"
        },
        {
          "internalType": "uint256",
          "name": "stakemount",
          "type": "uint256"
        },
        {
          "internalType": "uint256",
          "name": "rollOutcome",
          "type": "uint256"
        },
        {
          "internalType": "bool",
          "name": "bet",
          "type": "bool"
        },
        {
          "internalType": "enum GreedyPig.GameStatus",
          "name": "status",
          "type": "uint8"
        },
        {
          "internalType": "uint256",
          "name": "currentPlayerIndex",
          "type": "uint256"
        },
        {
          "internalType": "address",
          "name": "winner",
          "type": "address"
        }
      ],
      "stateMutability": "view",
      "type": "function"
    },
    {
      "inputs": [],
      "name": "getGameId",
      "outputs": [
        {
          "internalType": "uint256",
          "name": "",
          "type": "uint256"
        }
      ],
      "stateMutability": "view",
      "type": "function"
    },
    {
      "inputs": [
        {
          "internalType": "uint256",
          "name": "_requestId",
          "type": "uint256"
        }
      ],
      "name": "getRequestStatus",
      "outputs": [
        {
          "internalType": "bool",
          "name": "fulfilled",
          "type": "bool"
        },
        {
          "internalType": "uint256[]",
          "name": "randomWords",
          "type": "uint256[]"
        }
      ],
      "stateMutability": "view",
      "type": "function"
    },
    {
      "inputs": [
        {
          "internalType": "uint256",
          "name": "_gameId",
          "type": "uint256"
        }
      ],
      "name": "joinGame",
      "outputs": [],
      "stateMutability": "payable",
      "type": "function"
    },
    {
      "inputs": [],
      "name": "keyHash",
      "outputs": [
        {
          "internalType": "bytes32",
          "name": "",
          "type": "bytes32"
        }
      ],
      "stateMutability": "view",
      "type": "function"
    },
    {
      "inputs": [],
      "name": "lastRequestId",
      "outputs": [
        {
          "internalType": "uint256",
          "name": "",
          "type": "uint256"
        }
      ],
      "stateMutability": "view",
      "type": "function"
    },
    {
      "inputs": [],
      "name": "numWords",
      "outputs": [
        {
          "internalType": "uint32",
          "name": "",
          "type": "uint32"
        }
      ],
      "stateMutability": "view",
      "type": "function"
    },
    {
      "inputs": [],
      "name": "owner",
      "outputs": [
        {
          "internalType": "address",
          "name": "",
          "type": "address"
        }
      ],
      "stateMutability": "view",
      "type": "function"
    },
    {
      "inputs": [
        {
          "internalType": "uint256",
          "name": "_gameId",
          "type": "uint256"
        }
      ],
      "name": "passTurn",
      "outputs": [],
      "stateMutability": "nonpayable",
      "type": "function"
    },
    {
      "inputs": [
        {
          "internalType": "uint256",
          "name": "requestId",
          "type": "uint256"
        },
        {
          "internalType": "uint256[]",
          "name": "randomWords",
          "type": "uint256[]"
        }
      ],
      "name": "rawFulfillRandomWords",
      "outputs": [],
      "stateMutability": "nonpayable",
      "type": "function"
    },
    {
      "inputs": [],
      "name": "requestConfirmations",
      "outputs": [
        {
          "internalType": "uint16",
          "name": "",
          "type": "uint16"
        }
      ],
      "stateMutability": "view",
      "type": "function"
    },
    {
      "inputs": [
        {
          "internalType": "uint256",
          "name": "",
          "type": "uint256"
        }
      ],
      "name": "requestIds",
      "outputs": [
        {
          "internalType": "uint256",
          "name": "",
          "type": "uint256"
        }
      ],
      "stateMutability": "view",
      "type": "function"
    },
    {
      "inputs": [
        {
          "internalType": "bool",
          "name": "enableNativePayment",
          "type": "bool"
        }
      ],
      "name": "requestRandomWords",
      "outputs": [
        {
          "internalType": "uint256",
          "name": "requestId",
          "type": "uint256"
        }
      ],
      "stateMutability": "nonpayable",
      "type": "function"
    },
    {
      "inputs": [
        {
          "internalType": "uint256",
          "name": "_gameId",
          "type": "uint256"
        }
      ],
      "name": "rollDice",
      "outputs": [],
      "stateMutability": "nonpayable",
      "type": "function"
    },
    {
      "inputs": [
        {
          "internalType": "uint256",
          "name": "",
          "type": "uint256"
        }
      ],
      "name": "s_requests",
      "outputs": [
        {
          "internalType": "bool",
          "name": "fulfilled",
          "type": "bool"
        },
        {
          "internalType": "bool",
          "name": "exists",
          "type": "bool"
        }
      ],
      "stateMutability": "view",
      "type": "function"
    },
    {
      "inputs": [],
      "name": "s_subscriptionId",
      "outputs": [
        {
          "internalType": "uint256",
          "name": "",
          "type": "uint256"
        }
      ],
      "stateMutability": "view",
      "type": "function"
    },
    {
      "inputs": [],
      "name": "s_vrfCoordinator",
      "outputs": [
        {
          "internalType": "contract IVRFCoordinatorV2Plus",
          "name": "",
          "type": "address"
        }
      ],
      "stateMutability": "view",
      "type": "function"
    },
    {
      "inputs": [
        {
          "internalType": "address",
          "name": "_vrfCoordinator",
          "type": "address"
        }
      ],
      "name": "setCoordinator",
      "outputs": [],
      "stateMutability": "nonpayable",
      "type": "function"
    },
    {
      "inputs": [
        {
          "internalType": "address",
          "name": "to",
          "type": "address"
        }
      ],
      "name": "transferOwnership",
      "outputs": [],
      "stateMutability": "nonpayable",
      "type": "function"
    }
  ],
  "bytecode": "0x6080604052620186a0600c60006101000a81548163ffffffff021916908363ffffffff1602179055506003600c60046101000a81548161ffff021916908361ffff1602179055506001600c60066101000a81548163ffffffff021916908363ffffffff1602179055503480156200007557600080fd5b50604051620039493803806200394983398181016040528101906200009b91906200046a565b80338060008073ffffffffffffffffffffffffffffffffffffffff168273ffffffffffffffffffffffffffffffffffffffff160362000111576040517f08c379a0000000000000000000000000000000000000000000000000000000008152600401620001089062000527565b60405180910390fd5b816000806101000a81548173ffffffffffffffffffffffffffffffffffffffff021916908373ffffffffffffffffffffffffffffffffffffffff160217905550600073ffffffffffffffffffffffffffffffffffffffff168173ffffffffffffffffffffffffffffffffffffffff1614620001985762000197816200025b60201b60201c565b5b505050600073ffffffffffffffffffffffffffffffffffffffff168173ffffffffffffffffffffffffffffffffffffffff160362000202576040517fd92e233d00000000000000000000000000000000000000000000000000000000815260040160405180910390fd5b80600260006101000a81548173ffffffffffffffffffffffffffffffffffffffff021916908373ffffffffffffffffffffffffffffffffffffffff1602179055505082600b8190555081600881905550505050620005bb565b3373ffffffffffffffffffffffffffffffffffffffff168173ffffffffffffffffffffffffffffffffffffffff1603620002cc576040517f08c379a0000000000000000000000000000000000000000000000000000000008152600401620002c39062000599565b60405180910390fd5b80600160006101000a81548173ffffffffffffffffffffffffffffffffffffffff021916908373ffffffffffffffffffffffffffffffffffffffff1602179055508073ffffffffffffffffffffffffffffffffffffffff1660008054906101000a900473ffffffffffffffffffffffffffffffffffffffff1673ffffffffffffffffffffffffffffffffffffffff167fed8889f560326eb138920d842192f0eb3dd22b4f139c87a2c57538e05bae127860405160405180910390a350565b600080fd5b6000819050919050565b620003a4816200038f565b8114620003b057600080fd5b50565b600081519050620003c48162000399565b92915050565b6000819050919050565b620003df81620003ca565b8114620003eb57600080fd5b50565b600081519050620003ff81620003d4565b92915050565b600073ffffffffffffffffffffffffffffffffffffffff82169050919050565b6000620004328262000405565b9050919050565b620004448162000425565b81146200045057600080fd5b50565b600081519050620004648162000439565b92915050565b6000806000606084860312156200048657620004856200038a565b5b60006200049686828701620003b3565b9350506020620004a986828701620003ee565b9250506040620004bc8682870162000453565b9150509250925092565b600082825260208201905092915050565b7f43616e6e6f7420736574206f776e657220746f207a65726f0000000000000000600082015250565b60006200050f601883620004c6565b91506200051c82620004d7565b602082019050919050565b60006020820190508181036000830152620005428162000500565b9050919050565b7f43616e6e6f74207472616e7366657220746f2073656c66000000000000000000600082015250565b600062000581601783620004c6565b91506200058e8262000549565b602082019050919050565b60006020820190508181036000830152620005b48162000572565b9050919050565b61337e80620005cb6000396000f3fe60806040526004361061014b5760003560e01c80638ea98117116100b6578063c0bd83511161006f578063c0bd83511461048a578063d7c81b55146104b5578063d8a4676f146104e0578063efaa55a01461051e578063f2fde38b1461053a578063fc2a88c3146105635761014b565b80638ea981171461035e5780639eccacf614610387578063a168fa89146103b2578063a2f77bcc146103f0578063acfff37714610436578063b0fb162f1461045f5761014b565b80637392a771116101085780637392a7711461024c57806379ba5097146102895780637ccfd7fc146102a05780638796ba8c146102cb5780638ac00021146103085780638da5cb5b146103335761014b565b80630b6d715b1461015057806312065fe0146101795780631a5375e1146101a45780631fe543e3146101cd57806324f74697146101f657806361728f3914610221575b600080fd5b34801561015c57600080fd5b5061017760048036038101906101729190612019565b61058e565b005b34801561018557600080fd5b5061018e6106e5565b60405161019b9190612097565b60405180910390f35b3480156101b057600080fd5b506101cb60048036038101906101c691906120b2565b6106ed565b005b3480156101d957600080fd5b506101f460048036038101906101ef919061213f565b610776565b005b34801561020257600080fd5b5061020b61083c565b60405161021891906121be565b60405180910390f35b34801561022d57600080fd5b50610236610852565b60405161024391906121f2565b60405180910390f35b34801561025857600080fd5b50610273600480360381019061026e9190612245565b610858565b6040516102809190612097565b60405180910390f35b34801561029557600080fd5b5061029e610aeb565b005b3480156102ac57600080fd5b506102b5610c80565b6040516102c291906121be565b60405180910390f35b3480156102d757600080fd5b506102f260048036038101906102ed91906120b2565b610c96565b6040516102ff9190612097565b60405180910390f35b34801561031457600080fd5b5061031d610cba565b60405161032a9190612097565b60405180910390f35b34801561033f57600080fd5b50610348610cc0565b60405161035591906122b3565b60405180910390f35b34801561036a57600080fd5b50610385600480360381019061038091906122fa565b610ce9565b005b34801561039357600080fd5b5061039c610eca565b6040516103a99190612386565b60405180910390f35b3480156103be57600080fd5b506103d960048036038101906103d491906120b2565b610ef0565b6040516103e79291906123b0565b60405180910390f35b3480156103fc57600080fd5b50610417600480360381019061041291906120b2565b610f2e565b60405161042d9a999897969594939291906124cf565b60405180910390f35b34801561044257600080fd5b5061045d600480360381019061045891906120b2565b61108e565b005b34801561046b57600080fd5b506104746113c6565b604051610481919061258f565b60405180910390f35b34801561049657600080fd5b5061049f6113da565b6040516104ac9190612097565b60405180910390f35b3480156104c157600080fd5b506104ca6113e4565b6040516104d79190612097565b60405180910390f35b3480156104ec57600080fd5b50610507600480360381019061050291906120b2565b6113ea565b604051610515929190612668565b60405180910390f35b610538600480360381019061053391906120b2565b611515565b005b34801561054657600080fd5b50610561600480360381019061055c91906122fa565b6117ce565b005b34801561056f57600080fd5b506105786117e2565b6040516105859190612097565b60405180910390f35b600360008154809291906105a1906126c7565b9190505550600060046000600354815260200190815260200160002090506003548160000181905550838160010190816105db9190612911565b50338160020160006101000a81548173ffffffffffffffffffffffffffffffffffffffff021916908373ffffffffffffffffffffffffffffffffffffffff160217905550828160030181905550818160040181905550600560003373ffffffffffffffffffffffffffffffffffffffff1673ffffffffffffffffffffffffffffffffffffffff16815260200190815260200160002060035490806001815401808255809150506001900390600052602060002001600090919091909150553373ffffffffffffffffffffffffffffffffffffffff166003547fc3e0f84839dc888c892a013d10c8f9d6dc05a21a879d0ce468ca558013e9121c60405160405180910390a350505050565b600047905090565b600060046000838152602001908152602001600020905060008160070160003373ffffffffffffffffffffffffffffffffffffffff1673ffffffffffffffffffffffffffffffffffffffff1681526020019081526020016000209050806000015481600101600082825461076191906129e3565b92505081905550610771836117e8565b505050565b600260009054906101000a900473ffffffffffffffffffffffffffffffffffffffff1673ffffffffffffffffffffffffffffffffffffffff163373ffffffffffffffffffffffffffffffffffffffff161461082c5733600260009054906101000a900473ffffffffffffffffffffffffffffffffffffffff166040517f1cf993f4000000000000000000000000000000000000000000000000000000008152600401610823929190612a17565b60405180910390fd5b6108378383836118f0565b505050565b600c60009054906101000a900463ffffffff1681565b600b5481565b6000610862611a32565b600260009054906101000a900473ffffffffffffffffffffffffffffffffffffffff1673ffffffffffffffffffffffffffffffffffffffff16639b1c385e6040518060c00160405280600b5481526020016008548152602001600c60049054906101000a900461ffff1661ffff168152602001600c60009054906101000a900463ffffffff1663ffffffff168152602001600c60069054906101000a900463ffffffff1663ffffffff16815260200161092a6040518060200160405280881515815250611ac2565b8152506040518263ffffffff1660e01b81526004016109499190612b4b565b6020604051808303816000875af1158015610968573d6000803e3d6000fd5b505050506040513d601f19601f8201168201806040525081019061098c9190612b82565b90506040518060600160405280600015158152602001600115158152602001600067ffffffffffffffff8111156109c6576109c5611eb8565b5b6040519080825280602002602001820160405280156109f45781602001602082028036833780820191505090505b508152506007600083815260200190815260200160002060008201518160000160006101000a81548160ff02191690831515021790555060208201518160000160016101000a81548160ff0219169083151502179055506040820151816001019080519060200190610a67929190611e1f565b50905050600981908060018154018082558091505060019003906000526020600020016000909190919091505580600a819055507fcc58b13ad3eab50626c6a6300b1d139cd6ebb1688a7cced9461c2f7e762665ee81600c60069054906101000a900463ffffffff16604051610ade929190612baf565b60405180910390a1919050565b600160009054906101000a900473ffffffffffffffffffffffffffffffffffffffff1673ffffffffffffffffffffffffffffffffffffffff163373ffffffffffffffffffffffffffffffffffffffff1614610b7b576040517f08c379a0000000000000000000000000000000000000000000000000000000008152600401610b7290612c24565b60405180910390fd5b60008060009054906101000a900473ffffffffffffffffffffffffffffffffffffffff169050336000806101000a81548173ffffffffffffffffffffffffffffffffffffffff021916908373ffffffffffffffffffffffffffffffffffffffff1602179055506000600160006101000a81548173ffffffffffffffffffffffffffffffffffffffff021916908373ffffffffffffffffffffffffffffffffffffffff1602179055503373ffffffffffffffffffffffffffffffffffffffff168173ffffffffffffffffffffffffffffffffffffffff167f8be0079c531659141344cd1fd0a4f28419497f9722a3daafe3b4186f6b6457e060405160405180910390a350565b600c60069054906101000a900463ffffffff1681565b60098181548110610ca657600080fd5b906000526020600020016000915090505481565b60085481565b60008060009054906101000a900473ffffffffffffffffffffffffffffffffffffffff16905090565b610cf1610cc0565b73ffffffffffffffffffffffffffffffffffffffff163373ffffffffffffffffffffffffffffffffffffffff1614158015610d7a5750600260009054906101000a900473ffffffffffffffffffffffffffffffffffffffff1673ffffffffffffffffffffffffffffffffffffffff163373ffffffffffffffffffffffffffffffffffffffff1614155b15610de95733610d88610cc0565b600260009054906101000a900473ffffffffffffffffffffffffffffffffffffffff166040517f061db9c1000000000000000000000000000000000000000000000000000000008152600401610de093929190612c44565b60405180910390fd5b600073ffffffffffffffffffffffffffffffffffffffff168173ffffffffffffffffffffffffffffffffffffffff1603610e4f576040517fd92e233d00000000000000000000000000000000000000000000000000000000815260040160405180910390fd5b80600260006101000a81548173ffffffffffffffffffffffffffffffffffffffff021916908373ffffffffffffffffffffffffffffffffffffffff1602179055507fd1a6a14209a385a964d036e404cb5cfb71f4000cdb03c9366292430787261be681604051610ebf91906122b3565b60405180910390a150565b600260009054906101000a900473ffffffffffffffffffffffffffffffffffffffff1681565b60076020528060005260406000206000915090508060000160009054906101000a900460ff16908060000160019054906101000a900460ff16905082565b600060606000806000806000806000806000600460008d815260200190815260200160002090508060000154816001018260020160009054906101000a900473ffffffffffffffffffffffffffffffffffffffff168360030154846004015485600501548660060160009054906101000a900460ff168760090160009054906101000a900460ff1688600a015489600b0160009054906101000a900473ffffffffffffffffffffffffffffffffffffffff16888054610fec9061273e565b80601f01602080910402602001604051908101604052809291908181526020018280546110189061273e565b80156110655780601f1061103a57610100808354040283529160200191611065565b820191906000526020600020905b81548152906001019060200180831161104857829003601f168201915b505050505098509a509a509a509a509a509a509a509a509a509a50509193959799509193959799565b6003548111156110d3576040517f08c379a00000000000000000000000000000000000000000000000000000000081526004016110ca90612cc7565b60405180910390fd5b6000600460008381526020019081526020016000209050600281600801805490501015611135576040517f08c379a000000000000000000000000000000000000000000000000000000000815260040161112c90612d59565b60405180910390fd5b61113e81611b5a565b1561117e576040517f08c379a000000000000000000000000000000000000000000000000000000000815260040161117590612dc5565b60405180910390fd5b6000600281111561119257611191612458565b5b8160090160009054906101000a900460ff1660028111156111b6576111b5612458565b5b036111e95760018160090160006101000a81548160ff021916908360028111156111e3576111e2612458565b5b02179055505b60006111f3611b9b565b90508082600501819055503373ffffffffffffffffffffffffffffffffffffffff16837f84c283c54b9dd7c119a547366366504244b6d5c87460f44ffe83463b000af1e7836040516112459190612097565b60405180910390a360008260070160003373ffffffffffffffffffffffffffffffffffffffff1673ffffffffffffffffffffffffffffffffffffffff1681526020019081526020016000209050600182036112b257600081600001819055506112ad846117e8565b6113c0565b818160000160008282546112c691906129e3565b925050819055508260030154816001015482600001546112e691906129e3565b106113bf5760028360090160006101000a81548160ff0219169083600281111561131357611312612458565b5b0217905550806000015481600101600082825461133091906129e3565b925050819055503383600b0160006101000a81548173ffffffffffffffffffffffffffffffffffffffff021916908373ffffffffffffffffffffffffffffffffffffffff1602179055503373ffffffffffffffffffffffffffffffffffffffff16847f3d5fcd8fa3235aeb3897f25c8ea49989174981afcb01b9d03189d1056a16775b60405160405180910390a35b5b50505050565b600c60049054906101000a900461ffff1681565b6000600354905090565b60035481565b600060606007600084815260200190815260200160002060000160019054906101000a900460ff16611451576040517f08c379a000000000000000000000000000000000000000000000000000000000815260040161144890612e31565b60405180910390fd5b6000600760008581526020019081526020016000206040518060600160405290816000820160009054906101000a900460ff161515151581526020016000820160019054906101000a900460ff16151515158152602001600182018054806020026020016040519081016040528092919081815260200182805480156114f657602002820191906000526020600020905b8154815260200190600101908083116114e2575b5050505050815250509050806000015181604001519250925050915091565b60035481111561155a576040517f08c379a000000000000000000000000000000000000000000000000000000000815260040161155190612cc7565b60405180910390fd5b600060046000838152602001908152602001600020905061157b8233611c31565b156115bb576040517f08c379a00000000000000000000000000000000000000000000000000000000081526004016115b290612ec3565b60405180910390fd5b600060028111156115cf576115ce612458565b5b8160090160009054906101000a900460ff1660028111156115f3576115f2612458565b5b14611633576040517f08c379a000000000000000000000000000000000000000000000000000000000815260040161162a90612f2f565b60405180910390fd5b80600401543414611679576040517f08c379a000000000000000000000000000000000000000000000000000000000815260040161167090612f9b565b60405180910390fd5b80600801339080600181540180825580915050600190039060005260206000200160009091909190916101000a81548173ffffffffffffffffffffffffffffffffffffffff021916908373ffffffffffffffffffffffffffffffffffffffff1602179055508060070160003373ffffffffffffffffffffffffffffffffffffffff1673ffffffffffffffffffffffffffffffffffffffff16815260200190815260200160002050600660003373ffffffffffffffffffffffffffffffffffffffff1673ffffffffffffffffffffffffffffffffffffffff1681526020019081526020016000208290806001815401808255809150506001900390600052602060002001600090919091909150553373ffffffffffffffffffffffffffffffffffffffff16827f87969bc7faf902221a147b95ceba76e011c5efb0339a0a8ee7a2bb82d9cfbbd660405160405180910390a35050565b6117d6611a32565b6117df81611cf3565b50565b600a5481565b60006004600083815260200190815260200160002090506001600281111561181357611812612458565b5b8160090160009054906101000a900460ff16600281111561183757611836612458565b5b14611877576040517f08c379a000000000000000000000000000000000000000000000000000000000815260040161186e90613007565b60405180910390fd5b60008160080180549050116118c1576040517f08c379a00000000000000000000000000000000000000000000000000000000081526004016118b890613073565b60405180910390fd5b8060080180549050600182600a01546118da91906129e3565b6118e491906130c2565b81600a01819055505050565b6007600084815260200190815260200160002060000160019054906101000a900460ff16611953576040517f08c379a000000000000000000000000000000000000000000000000000000000815260040161194a90612e31565b60405180910390fd5b60016007600085815260200190815260200160002060000160006101000a81548160ff0219169083151502179055506000600160068484600081811061199c5761199b6130f3565b5b905060200201356119ad91906130c2565b6119b791906129e3565b905080600760008681526020019081526020016000206001016000815481106119e3576119e26130f3565b5b90600052602060002001819055507ffe2e2d779dba245964d4e3ef9b994be63856fd568bf7d3ca9e224755cb1bd54d848484604051611a249392919061318c565b60405180910390a150505050565b60008054906101000a900473ffffffffffffffffffffffffffffffffffffffff1673ffffffffffffffffffffffffffffffffffffffff163373ffffffffffffffffffffffffffffffffffffffff1614611ac0576040517f08c379a0000000000000000000000000000000000000000000000000000000008152600401611ab79061320a565b60405180910390fd5b565b60607f92fd13387c7fe7befbc38d303d6468778fb9731bc4583f17d92989c6fcfdeaaa82604051602401611af69190613255565b604051602081830303815290604052907bffffffffffffffffffffffffffffffffffffffffffffffffffffffff19166020820180517bffffffffffffffffffffffffffffffffffffffffffffffffffffffff83818316178352505050509050919050565b6000600280811115611b6f57611b6e612458565b5b8260090160009054906101000a900460ff166002811115611b9357611b92612458565b5b149050919050565b600080611ba86000610858565b9050600080611bb6836113ea565b915091506000815111611bfe576040517f08c379a0000000000000000000000000000000000000000000000000000000008152600401611bf5906132bc565b60405180910390fd5b8115611c2a5780600081518110611c1857611c176130f3565b5b60200260200101519350505050611c2e565b5050505b90565b60008060046000858152602001908152602001600020905060005b8160080180549050811015611ce6578373ffffffffffffffffffffffffffffffffffffffff16826008018281548110611c8857611c876130f3565b5b9060005260206000200160009054906101000a900473ffffffffffffffffffffffffffffffffffffffff1673ffffffffffffffffffffffffffffffffffffffff1603611cd957600192505050611ced565b8080600101915050611c4c565b5060009150505b92915050565b3373ffffffffffffffffffffffffffffffffffffffff168173ffffffffffffffffffffffffffffffffffffffff1603611d61576040517f08c379a0000000000000000000000000000000000000000000000000000000008152600401611d5890613328565b60405180910390fd5b80600160006101000a81548173ffffffffffffffffffffffffffffffffffffffff021916908373ffffffffffffffffffffffffffffffffffffffff1602179055508073ffffffffffffffffffffffffffffffffffffffff1660008054906101000a900473ffffffffffffffffffffffffffffffffffffffff1673ffffffffffffffffffffffffffffffffffffffff167fed8889f560326eb138920d842192f0eb3dd22b4f139c87a2c57538e05bae127860405160405180910390a350565b828054828255906000526020600020908101928215611e5b579160200282015b82811115611e5a578251825591602001919060010190611e3f565b5b509050611e689190611e6c565b5090565b5b80821115611e85576000816000905550600101611e6d565b5090565b6000604051905090565b600080fd5b600080fd5b600080fd5b600080fd5b6000601f19601f8301169050919050565b7f4e487b7100000000000000000000000000000000000000000000000000000000600052604160045260246000fd5b611ef082611ea7565b810181811067ffffffffffffffff82111715611f0f57611f0e611eb8565b5b80604052505050565b6000611f22611e89565b9050611f2e8282611ee7565b919050565b600067ffffffffffffffff821115611f4e57611f4d611eb8565b5b611f5782611ea7565b9050602081019050919050565b82818337600083830152505050565b6000611f86611f8184611f33565b611f18565b905082815260208101848484011115611fa257611fa1611ea2565b5b611fad848285611f64565b509392505050565b600082601f830112611fca57611fc9611e9d565b5b8135611fda848260208601611f73565b91505092915050565b6000819050919050565b611ff681611fe3565b811461200157600080fd5b50565b60008135905061201381611fed565b92915050565b60008060006060848603121561203257612031611e93565b5b600084013567ffffffffffffffff8111156120505761204f611e98565b5b61205c86828701611fb5565b935050602061206d86828701612004565b925050604061207e86828701612004565b9150509250925092565b61209181611fe3565b82525050565b60006020820190506120ac6000830184612088565b92915050565b6000602082840312156120c8576120c7611e93565b5b60006120d684828501612004565b91505092915050565b600080fd5b600080fd5b60008083601f8401126120ff576120fe611e9d565b5b8235905067ffffffffffffffff81111561211c5761211b6120df565b5b602083019150836020820283011115612138576121376120e4565b5b9250929050565b60008060006040848603121561215857612157611e93565b5b600061216686828701612004565b935050602084013567ffffffffffffffff81111561218757612186611e98565b5b612193868287016120e9565b92509250509250925092565b600063ffffffff82169050919050565b6121b88161219f565b82525050565b60006020820190506121d360008301846121af565b92915050565b6000819050919050565b6121ec816121d9565b82525050565b600060208201905061220760008301846121e3565b92915050565b60008115159050919050565b6122228161220d565b811461222d57600080fd5b50565b60008135905061223f81612219565b92915050565b60006020828403121561225b5761225a611e93565b5b600061226984828501612230565b91505092915050565b600073ffffffffffffffffffffffffffffffffffffffff82169050919050565b600061229d82612272565b9050919050565b6122ad81612292565b82525050565b60006020820190506122c860008301846122a4565b92915050565b6122d781612292565b81146122e257600080fd5b50565b6000813590506122f4816122ce565b92915050565b6000602082840312156123105761230f611e93565b5b600061231e848285016122e5565b91505092915050565b6000819050919050565b600061234c61234761234284612272565b612327565b612272565b9050919050565b600061235e82612331565b9050919050565b600061237082612353565b9050919050565b61238081612365565b82525050565b600060208201905061239b6000830184612377565b92915050565b6123aa8161220d565b82525050565b60006040820190506123c560008301856123a1565b6123d260208301846123a1565b9392505050565b600081519050919050565b600082825260208201905092915050565b60005b838110156124135780820151818401526020810190506123f8565b60008484015250505050565b600061242a826123d9565b61243481856123e4565b93506124448185602086016123f5565b61244d81611ea7565b840191505092915050565b7f4e487b7100000000000000000000000000000000000000000000000000000000600052602160045260246000fd5b6003811061249857612497612458565b5b50565b60008190506124a982612487565b919050565b60006124b98261249b565b9050919050565b6124c9816124ae565b82525050565b6000610140820190506124e5600083018d612088565b81810360208301526124f7818c61241f565b9050612506604083018b6122a4565b612513606083018a612088565b6125206080830189612088565b61252d60a0830188612088565b61253a60c08301876123a1565b61254760e08301866124c0565b612555610100830185612088565b6125636101208301846122a4565b9b9a5050505050505050505050565b600061ffff82169050919050565b61258981612572565b82525050565b60006020820190506125a46000830184612580565b92915050565b600081519050919050565b600082825260208201905092915050565b6000819050602082019050919050565b6125df81611fe3565b82525050565b60006125f183836125d6565b60208301905092915050565b6000602082019050919050565b6000612615826125aa565b61261f81856125b5565b935061262a836125c6565b8060005b8381101561265b57815161264288826125e5565b975061264d836125fd565b92505060018101905061262e565b5085935050505092915050565b600060408201905061267d60008301856123a1565b818103602083015261268f818461260a565b90509392505050565b7f4e487b7100000000000000000000000000000000000000000000000000000000600052601160045260246000fd5b60006126d282611fe3565b91507fffffffffffffffffffffffffffffffffffffffffffffffffffffffffffffffff820361270457612703612698565b5b600182019050919050565b7f4e487b7100000000000000000000000000000000000000000000000000000000600052602260045260246000fd5b6000600282049050600182168061275657607f821691505b6020821081036127695761276861270f565b5b50919050565b60008190508160005260206000209050919050565b60006020601f8301049050919050565b600082821b905092915050565b6000600883026127d17fffffffffffffffffffffffffffffffffffffffffffffffffffffffffffffffff82612794565b6127db8683612794565b95508019841693508086168417925050509392505050565b600061280e61280961280484611fe3565b612327565b611fe3565b9050919050565b6000819050919050565b612828836127f3565b61283c61283482612815565b8484546127a1565b825550505050565b600090565b612851612844565b61285c81848461281f565b505050565b5b8181101561288057612875600082612849565b600181019050612862565b5050565b601f8211156128c5576128968161276f565b61289f84612784565b810160208510156128ae578190505b6128c26128ba85612784565b830182612861565b50505b505050565b600082821c905092915050565b60006128e8600019846008026128ca565b1980831691505092915050565b600061290183836128d7565b9150826002028217905092915050565b61291a826123d9565b67ffffffffffffffff81111561293357612932611eb8565b5b61293d825461273e565b612948828285612884565b600060209050601f83116001811461297b5760008415612969578287015190505b61297385826128f5565b8655506129db565b601f1984166129898661276f565b60005b828110156129b15784890151825560018201915060208501945060208101905061298c565b868310156129ce57848901516129ca601f8916826128d7565b8355505b6001600288020188555050505b505050505050565b60006129ee82611fe3565b91506129f983611fe3565b9250828201905080821115612a1157612a10612698565b5b92915050565b6000604082019050612a2c60008301856122a4565b612a3960208301846122a4565b9392505050565b612a49816121d9565b82525050565b612a5881612572565b82525050565b612a678161219f565b82525050565b600081519050919050565b600082825260208201905092915050565b6000612a9482612a6d565b612a9e8185612a78565b9350612aae8185602086016123f5565b612ab781611ea7565b840191505092915050565b600060c083016000830151612ada6000860182612a40565b506020830151612aed60208601826125d6565b506040830151612b006040860182612a4f565b506060830151612b136060860182612a5e565b506080830151612b266080860182612a5e565b5060a083015184820360a0860152612b3e8282612a89565b9150508091505092915050565b60006020820190508181036000830152612b658184612ac2565b905092915050565b600081519050612b7c81611fed565b92915050565b600060208284031215612b9857612b97611e93565b5b6000612ba684828501612b6d565b91505092915050565b6000604082019050612bc46000830185612088565b612bd160208301846121af565b9392505050565b7f4d7573742062652070726f706f736564206f776e657200000000000000000000600082015250565b6000612c0e6016836123e4565b9150612c1982612bd8565b602082019050919050565b60006020820190508181036000830152612c3d81612c01565b9050919050565b6000606082019050612c5960008301866122a4565b612c6660208301856122a4565b612c7360408301846122a4565b949350505050565b7f496e76616c69642067616d652069640000000000000000000000000000000000600082015250565b6000612cb1600f836123e4565b9150612cbc82612c7b565b602082019050919050565b60006020820190508181036000830152612ce081612ca4565b9050919050565b7f4174206c656173742074776f20706c617965727320617265207265717569726560008201527f6420746f207374617274207468652067616d6500000000000000000000000000602082015250565b6000612d436033836123e4565b9150612d4e82612ce7565b604082019050919050565b60006020820190508181036000830152612d7281612d36565b9050919050565b7f5468652067616d65206973206f76657200000000000000000000000000000000600082015250565b6000612daf6010836123e4565b9150612dba82612d79565b602082019050919050565b60006020820190508181036000830152612dde81612da2565b9050919050565b7f72657175657374206e6f7420666f756e64000000000000000000000000000000600082015250565b6000612e1b6011836123e4565b9150612e2682612de5565b602082019050919050565b60006020820190508181036000830152612e4a81612e0e565b9050919050565b7f596f75206861766520616c7265616479206a6f696e656420746869732067616d60008201527f6500000000000000000000000000000000000000000000000000000000000000602082015250565b6000612ead6021836123e4565b9150612eb882612e51565b604082019050919050565b60006020820190508181036000830152612edc81612ea0565b9050919050565b7f43616e2774206a6f696e20617420746865206d6f6d656e740000000000000000600082015250565b6000612f196018836123e4565b9150612f2482612ee3565b602082019050919050565b60006020820190508181036000830152612f4881612f0c565b9050919050565b7f496e636f7272656374207374616b6520616d6f756e7400000000000000000000600082015250565b6000612f856016836123e4565b9150612f9082612f4f565b602082019050919050565b60006020820190508181036000830152612fb481612f78565b9050919050565b7f47616d65206e6f7420696e2070726f6772657373000000000000000000000000600082015250565b6000612ff16014836123e4565b9150612ffc82612fbb565b602082019050919050565b6000602082019050818103600083015261302081612fe4565b9050919050565b7f4e6f20706c617965727320696e207468652067616d6500000000000000000000600082015250565b600061305d6016836123e4565b915061306882613027565b602082019050919050565b6000602082019050818103600083015261308c81613050565b9050919050565b7f4e487b7100000000000000000000000000000000000000000000000000000000600052601260045260246000fd5b60006130cd82611fe3565b91506130d883611fe3565b9250826130e8576130e7613093565b5b828206905092915050565b7f4e487b7100000000000000000000000000000000000000000000000000000000600052603260045260246000fd5b600080fd5b82818337505050565b600061313c83856125b5565b93507f07ffffffffffffffffffffffffffffffffffffffffffffffffffffffffffffff83111561316f5761316e613122565b5b602083029250613180838584613127565b82840190509392505050565b60006040820190506131a16000830186612088565b81810360208301526131b4818486613130565b9050949350505050565b7f4f6e6c792063616c6c61626c65206279206f776e657200000000000000000000600082015250565b60006131f46016836123e4565b91506131ff826131be565b602082019050919050565b60006020820190508181036000830152613223816131e7565b9050919050565b6132338161220d565b82525050565b60208201600082015161324f600085018261322a565b50505050565b600060208201905061326a6000830184613239565b92915050565b7f6e6f2072616e646f6d20776f72647320617661696c61626c6500000000000000600082015250565b60006132a66019836123e4565b91506132b182613270565b602082019050919050565b600060208201905081810360008301526132d581613299565b9050919050565b7f43616e6e6f74207472616e7366657220746f2073656c66000000000000000000600082015250565b60006133126017836123e4565b915061331d826132dc565b602082019050919050565b6000602082019050818103600083015261334181613305565b905091905056fea2646970667358221220539d1cbd8ee432bb3dfbb82347cde4e243550176831c0a111125f918306be28164736f6c63430008180033",
  "linkReferences": {},
  "deployedLinkReferences": {}
}